{
  "contracts/Pool.sol": {
    "IdentityFactory": {
      "abi": [
        {
          "inputs": [
            {
              "components": [
                {
                  "components": [
                    {
                      "internalType": "uint256",
                      "name": "X",
                      "type": "uint256"
                    },
                    {
                      "internalType": "uint256",
                      "name": "Y",
                      "type": "uint256"
                    }
                  ],
                  "internalType": "struct Pairing.G1Point",
                  "name": "a",
                  "type": "tuple"
                },
                {
                  "components": [
                    {
                      "internalType": "uint256[2]",
                      "name": "X",
                      "type": "uint256[2]"
                    },
                    {
                      "internalType": "uint256[2]",
                      "name": "Y",
                      "type": "uint256[2]"
                    }
                  ],
                  "internalType": "struct Pairing.G2Point",
                  "name": "b",
                  "type": "tuple"
                },
                {
                  "components": [
                    {
                      "internalType": "uint256",
                      "name": "X",
                      "type": "uint256"
                    },
                    {
                      "internalType": "uint256",
                      "name": "Y",
                      "type": "uint256"
                    }
                  ],
                  "internalType": "struct Pairing.G1Point",
                  "name": "c",
                  "type": "tuple"
                }
              ],
              "internalType": "struct Verifier.Proof",
              "name": "proof",
              "type": "tuple"
            },
            {
              "internalType": "string",
              "name": "cid",
              "type": "string"
            }
          ],
          "name": "broadcastData",
          "outputs": [],
          "stateMutability": "nonpayable",
          "type": "function"
        },
        {
          "inputs": [
            {
              "internalType": "uint256",
              "name": "",
              "type": "uint256"
            }
          ],
          "name": "ipfsCIDs",
          "outputs": [
            {
              "internalType": "string",
              "name": "",
              "type": "string"
            }
          ],
          "stateMutability": "view",
          "type": "function"
        },
        {
          "inputs": [],
          "name": "uploadCount",
          "outputs": [
            {
              "internalType": "uint256",
              "name": "",
              "type": "uint256"
            }
          ],
          "stateMutability": "view",
          "type": "function"
        },
        {
          "inputs": [
            {
              "components": [
                {
                  "components": [
                    {
                      "internalType": "uint256",
                      "name": "X",
                      "type": "uint256"
                    },
                    {
                      "internalType": "uint256",
                      "name": "Y",
                      "type": "uint256"
                    }
                  ],
                  "internalType": "struct Pairing.G1Point",
                  "name": "a",
                  "type": "tuple"
                },
                {
                  "components": [
                    {
                      "internalType": "uint256[2]",
                      "name": "X",
                      "type": "uint256[2]"
                    },
                    {
                      "internalType": "uint256[2]",
                      "name": "Y",
                      "type": "uint256[2]"
                    }
                  ],
                  "internalType": "struct Pairing.G2Point",
                  "name": "b",
                  "type": "tuple"
                },
                {
                  "components": [
                    {
                      "internalType": "uint256",
                      "name": "X",
                      "type": "uint256"
                    },
                    {
                      "internalType": "uint256",
                      "name": "Y",
                      "type": "uint256"
                    }
                  ],
                  "internalType": "struct Pairing.G1Point",
                  "name": "c",
                  "type": "tuple"
                }
              ],
              "internalType": "struct Verifier.Proof",
              "name": "proof",
              "type": "tuple"
            }
          ],
          "name": "verifyTx",
          "outputs": [
            {
              "internalType": "bool",
              "name": "r",
              "type": "bool"
            }
          ],
          "stateMutability": "view",
          "type": "function"
        }
      ],
      "evm": {
        "bytecode": {
          "linkReferences": {},
          "object": "60806040526000805534801561001457600080fd5b50611b54806100246000396000f3fe608060405234801561001057600080fd5b506004361061004c5760003560e01c806342b673191461005157806372ef494a1461006d578063f6af03111461009d578063fae71b64146100cd575b600080fd5b61006b600480360381019061006691906114f6565b6100eb565b005b61008760048036038101906100829190611554565b610269565b6040516100949190611609565b60405180910390f35b6100b760048036038101906100b2919061162b565b610315565b6040516100c49190611674565b60405180910390f35b6100d561038b565b6040516100e2919061169e565b60405180910390f35b600115156100f883610315565b1515141561022a576000826000015183602001518460400151604051602001610123939291906117c2565b604051602081830303815290604052805190602001209050600115156002600083815260200190815260200160002060009054906101000a900460ff16151514156101a3576040517f08c379a000000000000000000000000000000000000000000000000000000000815260040161019a90611846565b60405180910390fd5b60016002600083815260200190815260200160002060006101000a81548160ff02191690831515021790555060016000808282546101e19190611895565b92505081905550600182908060018154018082558091505060019003906000526020600020016000909190919091509080519060200190610223929190610ff4565b5050610265565b6040517f08c379a000000000000000000000000000000000000000000000000000000000815260040161025c90611937565b60405180910390fd5b5050565b6001818154811061027957600080fd5b90600052602060002001600091509050805461029490611986565b80601f01602080910402602001604051908101604052809291908181526020018280546102c090611986565b801561030d5780601f106102e25761010080835404028352916020019161030d565b820191906000526020600020905b8154815290600101906020018083116102f057829003601f168201915b505050505081565b600080600067ffffffffffffffff811115610333576103326111d0565b5b6040519080825280602002602001820160405280156103615781602001602082028036833780820191505090505b50905060006103708285610391565b1415610380576001915050610386565b60009150505b919050565b60005481565b6000807f30644e72e131a029b85045b68181585d2833e84879b9709143e1f593f0000001905060006103c1610528565b9050806080015151600186516103d79190611895565b146103e157600080fd5b60006040518060400160405280600081526020016000815250905060005b865181101561049a578387828151811061041c5761041b6119b8565b5b60200260200101511061042e57600080fd5b6104858261048085608001516001856104479190611895565b81518110610458576104576119b8565b5b60200260200101518a8581518110610473576104726119b8565b5b60200260200101516108b3565b61095a565b91508080610492906119e7565b9150506103ff565b506104c48183608001516000815181106104b7576104b66119b8565b5b602002602001015161095a565b905061050a856000015186602001516104dc84610a27565b85604001516104ee8a60400151610a27565b87606001516105008960000151610a27565b8960200151610acc565b61051a5760019350505050610522565b600093505050505b92915050565b61053061107a565b60405180604001604052807f18520e711c2174112a711616cc9174aea2d6b6a66818ae453e79157d128e761681526020017f27dbe4a296d5f8c4e5ceab3bf2cbe9af1f9c223814acd3a2506d16db8f0136208152508160000181905250604051806040016040528060405180604001604052807f08604c7de1122c2be83ec294dcd7d8af74b1a0beb4ea45a69d35b9d792aa676281526020017e32683b38b707e251c3ab75690247a5aaca4872a62d9ec3e2fb4645333cf2a1815250815260200160405180604001604052807f231a7508286ef6cddd264a9ddef1a24c0a590144f5589810c5e489d966b21b6b81526020017f0981b141a13c9829a84d4f7c7c8724779f880cfc46d4e99215ea5c410de5970e8152508152508160200181905250604051806040016040528060405180604001604052807f2d6a1f06329737fc5f094d929a4459446d8d962eda3662b04a439262171a167e81526020017f03c01abb60d4451cdf236e19b5459d74e4f123955a6068fc41621e6ca4d2b111815250815260200160405180604001604052807f298aceb47ebc56cf25374384d5740b0e5aba96081caad6712f3c7aa4a2cf30be81526020017f1cbe2d552c3eef5da11295bf3cca781d8627c2c79785b462754091e50ee55e238152508152508160400181905250604051806040016040528060405180604001604052807f146dcb1e010cc07c9096d4a0e469bcd40e31d10f4f102657971b39eee59d841c81526020017f04b4731aad2742d847b7504c2603b6df534eefa5f31522be2d925bd4e1838ea2815250815260200160405180604001604052807f19dc26629ab006fb6103ae7520056fec1a520be25865a5edd8e1515c1a2a25e781526020017f2db4096b08e7882177c4d1ad8ff1f10a4f7c7dbcd0998b85f31a8e85ad49cdf98152508152508160600181905250600167ffffffffffffffff8111156107f6576107f56111d0565b5b60405190808252806020026020018201604052801561082f57816020015b61081c6110c1565b8152602001906001900390816108145790505b50816080018190525060405180604001604052807f129a47efd005e8a7c5d6c1c39bfac6389b40091137e8f0d7de268d74c9aa82ca81526020017f2bbee24f90c3edd0356940b51f1510d5f70e0c7b6e8f02c3cc4160f37993d34e81525081608001516000815181106108a5576108a46119b8565b5b602002602001018190525090565b6108bb6110c1565b6108c36110db565b8360000151816000600381106108dc576108db6119b8565b5b6020020181815250508360200151816001600381106108fe576108fd6119b8565b5b602002018181525050828160026003811061091c5761091b6119b8565b5b602002018181525050600060608360808460076107d05a03fa9050806000811461094557610947565bfe5b508061095257600080fd5b505092915050565b6109626110c1565b61096a6110fd565b836000015181600060048110610983576109826119b8565b5b6020020181815250508360200151816001600481106109a5576109a46119b8565b5b6020020181815250508260000151816002600481106109c7576109c66119b8565b5b6020020181815250508260200151816003600481106109e9576109e86119b8565b5b602002018181525050600060608360c08460066107d05a03fa90508060008114610a1257610a14565bfe5b5080610a1f57600080fd5b505092915050565b610a2f6110c1565b60007f30644e72e131a029b85045b68181585d97816a916871ca8d3c208c16d87cfd47905060008360000151148015610a6c575060008360200151145b15610a90576040518060400160405280600081526020016000815250915050610ac7565b604051806040016040528084600001518152602001828560200151610ab59190611a5f565b83610ac09190611a90565b8152509150505b919050565b600080600467ffffffffffffffff811115610aea57610ae96111d0565b5b604051908082528060200260200182016040528015610b2357816020015b610b106110c1565b815260200190600190039081610b085790505b5090506000600467ffffffffffffffff811115610b4357610b426111d0565b5b604051908082528060200260200182016040528015610b7c57816020015b610b6961111f565b815260200190600190039081610b615790505b5090508a82600081518110610b9457610b936119b8565b5b60200260200101819052508882600181518110610bb457610bb36119b8565b5b60200260200101819052508682600281518110610bd457610bd36119b8565b5b60200260200101819052508482600381518110610bf457610bf36119b8565b5b60200260200101819052508981600081518110610c1457610c136119b8565b5b60200260200101819052508781600181518110610c3457610c336119b8565b5b60200260200101819052508581600281518110610c5457610c536119b8565b5b60200260200101819052508381600381518110610c7457610c736119b8565b5b6020026020010181905250610c898282610c99565b9250505098975050505050505050565b60008151835114610ca957600080fd5b6000835190506000600682610cbe9190611ac4565b905060008167ffffffffffffffff811115610cdc57610cdb6111d0565b5b604051908082528060200260200182016040528015610d0a5781602001602082028036833780820191505090505b50905060005b83811015610f8f57868181518110610d2b57610d2a6119b8565b5b602002602001015160000151826000600684610d479190611ac4565b610d519190611895565b81518110610d6257610d616119b8565b5b602002602001018181525050868181518110610d8157610d806119b8565b5b602002602001015160200151826001600684610d9d9190611ac4565b610da79190611895565b81518110610db857610db76119b8565b5b602002602001018181525050858181518110610dd757610dd66119b8565b5b602002602001015160000151600160028110610df657610df56119b8565b5b6020020151826002600684610e0b9190611ac4565b610e159190611895565b81518110610e2657610e256119b8565b5b602002602001018181525050858181518110610e4557610e446119b8565b5b602002602001015160000151600060028110610e6457610e636119b8565b5b6020020151826003600684610e799190611ac4565b610e839190611895565b81518110610e9457610e936119b8565b5b602002602001018181525050858181518110610eb357610eb26119b8565b5b602002602001015160200151600160028110610ed257610ed16119b8565b5b6020020151826004600684610ee79190611ac4565b610ef19190611895565b81518110610f0257610f016119b8565b5b602002602001018181525050858181518110610f2157610f206119b8565b5b602002602001015160200151600060028110610f4057610f3f6119b8565b5b6020020151826005600684610f559190611ac4565b610f5f9190611895565b81518110610f7057610f6f6119b8565b5b6020026020010181815250508080610f87906119e7565b915050610d10565b50610f98611145565b6000602082602086026020860160086107d05a03fa90508060008114610fbd57610fbf565bfe5b5080610fca57600080fd5b600082600060018110610fe057610fdf6119b8565b5b602002015114159550505050505092915050565b82805461100090611986565b90600052602060002090601f0160209004810192826110225760008555611069565b82601f1061103b57805160ff1916838001178555611069565b82800160010185558215611069579182015b8281111561106857825182559160200191906001019061104d565b5b5090506110769190611167565b5090565b6040518060a0016040528061108d6110c1565b815260200161109a61111f565b81526020016110a761111f565b81526020016110b461111f565b8152602001606081525090565b604051806040016040528060008152602001600081525090565b6040518060600160405280600390602082028036833780820191505090505090565b6040518060800160405280600490602082028036833780820191505090505090565b6040518060400160405280611132611184565b815260200161113f611184565b81525090565b6040518060200160405280600190602082028036833780820191505090505090565b5b80821115611180576000816000905550600101611168565b5090565b6040518060400160405280600290602082028036833780820191505090505090565b6000604051905090565b600080fd5b600080fd5b600080fd5b6000601f19601f8301169050919050565b7f4e487b7100000000000000000000000000000000000000000000000000000000600052604160045260246000fd5b611208826111bf565b810181811067ffffffffffffffff82111715611227576112266111d0565b5b80604052505050565b600061123a6111a6565b905061124682826111ff565b919050565b6000819050919050565b61125e8161124b565b811461126957600080fd5b50565b60008135905061127b81611255565b92915050565b600060408284031215611297576112966111ba565b5b6112a16040611230565b905060006112b18482850161126c565b60008301525060206112c58482850161126c565b60208301525092915050565b600080fd5b600067ffffffffffffffff8211156112f1576112f06111d0565b5b602082029050919050565b600080fd5b600061131461130f846112d6565b611230565b9050806020840283018581111561132e5761132d6112fc565b5b835b818110156113575780611343888261126c565b845260208401935050602081019050611330565b5050509392505050565b600082601f830112611376576113756112d1565b5b6002611383848285611301565b91505092915050565b6000608082840312156113a2576113a16111ba565b5b6113ac6040611230565b905060006113bc84828501611361565b60008301525060406113d084828501611361565b60208301525092915050565b600061010082840312156113f3576113f26111ba565b5b6113fd6060611230565b9050600061140d84828501611281565b60008301525060406114218482850161138c565b60208301525060c061143584828501611281565b60408301525092915050565b600080fd5b600067ffffffffffffffff821115611461576114606111d0565b5b61146a826111bf565b9050602081019050919050565b82818337600083830152505050565b600061149961149484611446565b611230565b9050828152602081018484840111156114b5576114b4611441565b5b6114c0848285611477565b509392505050565b600082601f8301126114dd576114dc6112d1565b5b81356114ed848260208601611486565b91505092915050565b600080610120838503121561150e5761150d6111b0565b5b600061151c858286016113dc565b92505061010083013567ffffffffffffffff81111561153e5761153d6111b5565b5b61154a858286016114c8565b9150509250929050565b60006020828403121561156a576115696111b0565b5b60006115788482850161126c565b91505092915050565b600081519050919050565b600082825260208201905092915050565b60005b838110156115bb5780820151818401526020810190506115a0565b838111156115ca576000848401525b50505050565b60006115db82611581565b6115e5818561158c565b93506115f581856020860161159d565b6115fe816111bf565b840191505092915050565b6000602082019050818103600083015261162381846115d0565b905092915050565b60006101008284031215611642576116416111b0565b5b6000611650848285016113dc565b91505092915050565b60008115159050919050565b61166e81611659565b82525050565b60006020820190506116896000830184611665565b92915050565b6116988161124b565b82525050565b60006020820190506116b3600083018461168f565b92915050565b6116c28161124b565b82525050565b6040820160008201516116de60008501826116b9565b5060208201516116f160208501826116b9565b50505050565b600060029050919050565b600081905092915050565b6000819050919050565b600061172383836116b9565b60208301905092915050565b6000602082019050919050565b611745816116f7565b61174f8184611702565b925061175a8261170d565b8060005b8381101561178b5781516117728782611717565b965061177d8361172f565b92505060018101905061175e565b505050505050565b6080820160008201516117a9600085018261173c565b5060208201516117bc604085018261173c565b50505050565b6000610100820190506117d860008301866116c8565b6117e56040830185611793565b6117f260c08301846116c8565b949350505050565b7f50726f6f662068617320616c7265616479206265656e20757365640000000000600082015250565b6000611830601b8361158c565b915061183b826117fa565b602082019050919050565b6000602082019050818103600083015261185f81611823565b9050919050565b7f4e487b7100000000000000000000000000000000000000000000000000000000600052601160045260246000fd5b60006118a08261124b565b91506118ab8361124b565b9250827fffffffffffffffffffffffffffffffffffffffffffffffffffffffffffffffff038211156118e0576118df611866565b5b828201905092915050565b7f496e76616c69642070726f6f6600000000000000000000000000000000000000600082015250565b6000611921600d8361158c565b915061192c826118eb565b602082019050919050565b6000602082019050818103600083015261195081611914565b9050919050565b7f4e487b7100000000000000000000000000000000000000000000000000000000600052602260045260246000fd5b6000600282049050600182168061199e57607f821691505b602082108114156119b2576119b1611957565b5b50919050565b7f4e487b7100000000000000000000000000000000000000000000000000000000600052603260045260246000fd5b60006119f28261124b565b91507fffffffffffffffffffffffffffffffffffffffffffffffffffffffffffffffff821415611a2557611a24611866565b5b600182019050919050565b7f4e487b7100000000000000000000000000000000000000000000000000000000600052601260045260246000fd5b6000611a6a8261124b565b9150611a758361124b565b925082611a8557611a84611a30565b5b828206905092915050565b6000611a9b8261124b565b9150611aa68361124b565b925082821015611ab957611ab8611866565b5b828203905092915050565b6000611acf8261124b565b9150611ada8361124b565b9250817fffffffffffffffffffffffffffffffffffffffffffffffffffffffffffffffff0483118215151615611b1357611b12611866565b5b82820290509291505056fea2646970667358221220d60e9e77cff3c6701a2495a88d3d0dc32697d889fdb24f7d1c46b7960e3756c864736f6c63430008090033",
          "opcodes": "PUSH1 0x80 PUSH1 0x40 MSTORE PUSH1 0x0 DUP1 SSTORE CALLVALUE DUP1 ISZERO PUSH2 0x14 JUMPI PUSH1 0x0 DUP1 REVERT JUMPDEST POP PUSH2 0x1B54 DUP1 PUSH2 0x24 PUSH1 0x0 CODECOPY PUSH1 0x0 RETURN INVALID PUSH1 0x80 PUSH1 0x40 MSTORE CALLVALUE DUP1 ISZERO PUSH2 0x10 JUMPI PUSH1 0x0 DUP1 REVERT JUMPDEST POP PUSH1 0x4 CALLDATASIZE LT PUSH2 0x4C JUMPI PUSH1 0x0 CALLDATALOAD PUSH1 0xE0 SHR DUP1 PUSH4 0x42B67319 EQ PUSH2 0x51 JUMPI DUP1 PUSH4 0x72EF494A EQ PUSH2 0x6D JUMPI DUP1 PUSH4 0xF6AF0311 EQ PUSH2 0x9D JUMPI DUP1 PUSH4 0xFAE71B64 EQ PUSH2 0xCD JUMPI JUMPDEST PUSH1 0x0 DUP1 REVERT JUMPDEST PUSH2 0x6B PUSH1 0x4 DUP1 CALLDATASIZE SUB DUP2 ADD SWAP1 PUSH2 0x66 SWAP2 SWAP1 PUSH2 0x14F6 JUMP JUMPDEST PUSH2 0xEB JUMP JUMPDEST STOP JUMPDEST PUSH2 0x87 PUSH1 0x4 DUP1 CALLDATASIZE SUB DUP2 ADD SWAP1 PUSH2 0x82 SWAP2 SWAP1 PUSH2 0x1554 JUMP JUMPDEST PUSH2 0x269 JUMP JUMPDEST PUSH1 0x40 MLOAD PUSH2 0x94 SWAP2 SWAP1 PUSH2 0x1609 JUMP JUMPDEST PUSH1 0x40 MLOAD DUP1 SWAP2 SUB SWAP1 RETURN JUMPDEST PUSH2 0xB7 PUSH1 0x4 DUP1 CALLDATASIZE SUB DUP2 ADD SWAP1 PUSH2 0xB2 SWAP2 SWAP1 PUSH2 0x162B JUMP JUMPDEST PUSH2 0x315 JUMP JUMPDEST PUSH1 0x40 MLOAD PUSH2 0xC4 SWAP2 SWAP1 PUSH2 0x1674 JUMP JUMPDEST PUSH1 0x40 MLOAD DUP1 SWAP2 SUB SWAP1 RETURN JUMPDEST PUSH2 0xD5 PUSH2 0x38B JUMP JUMPDEST PUSH1 0x40 MLOAD PUSH2 0xE2 SWAP2 SWAP1 PUSH2 0x169E JUMP JUMPDEST PUSH1 0x40 MLOAD DUP1 SWAP2 SUB SWAP1 RETURN JUMPDEST PUSH1 0x1 ISZERO ISZERO PUSH2 0xF8 DUP4 PUSH2 0x315 JUMP JUMPDEST ISZERO ISZERO EQ ISZERO PUSH2 0x22A JUMPI PUSH1 0x0 DUP3 PUSH1 0x0 ADD MLOAD DUP4 PUSH1 0x20 ADD MLOAD DUP5 PUSH1 0x40 ADD MLOAD PUSH1 0x40 MLOAD PUSH1 0x20 ADD PUSH2 0x123 SWAP4 SWAP3 SWAP2 SWAP1 PUSH2 0x17C2 JUMP JUMPDEST PUSH1 0x40 MLOAD PUSH1 0x20 DUP2 DUP4 SUB SUB DUP2 MSTORE SWAP1 PUSH1 0x40 MSTORE DUP1 MLOAD SWAP1 PUSH1 0x20 ADD KECCAK256 SWAP1 POP PUSH1 0x1 ISZERO ISZERO PUSH1 0x2 PUSH1 0x0 DUP4 DUP2 MSTORE PUSH1 0x20 ADD SWAP1 DUP2 MSTORE PUSH1 0x20 ADD PUSH1 0x0 KECCAK256 PUSH1 0x0 SWAP1 SLOAD SWAP1 PUSH2 0x100 EXP SWAP1 DIV PUSH1 0xFF AND ISZERO ISZERO EQ ISZERO PUSH2 0x1A3 JUMPI PUSH1 0x40 MLOAD PUSH32 0x8C379A000000000000000000000000000000000000000000000000000000000 DUP2 MSTORE PUSH1 0x4 ADD PUSH2 0x19A SWAP1 PUSH2 0x1846 JUMP JUMPDEST PUSH1 0x40 MLOAD DUP1 SWAP2 SUB SWAP1 REVERT JUMPDEST PUSH1 0x1 PUSH1 0x2 PUSH1 0x0 DUP4 DUP2 MSTORE PUSH1 0x20 ADD SWAP1 DUP2 MSTORE PUSH1 0x20 ADD PUSH1 0x0 KECCAK256 PUSH1 0x0 PUSH2 0x100 EXP DUP2 SLOAD DUP2 PUSH1 0xFF MUL NOT AND SWAP1 DUP4 ISZERO ISZERO MUL OR SWAP1 SSTORE POP PUSH1 0x1 PUSH1 0x0 DUP1 DUP3 DUP3 SLOAD PUSH2 0x1E1 SWAP2 SWAP1 PUSH2 0x1895 JUMP JUMPDEST SWAP3 POP POP DUP2 SWAP1 SSTORE POP PUSH1 0x1 DUP3 SWAP1 DUP1 PUSH1 0x1 DUP2 SLOAD ADD DUP1 DUP3 SSTORE DUP1 SWAP2 POP POP PUSH1 0x1 SWAP1 SUB SWAP1 PUSH1 0x0 MSTORE PUSH1 0x20 PUSH1 0x0 KECCAK256 ADD PUSH1 0x0 SWAP1 SWAP2 SWAP1 SWAP2 SWAP1 SWAP2 POP SWAP1 DUP1 MLOAD SWAP1 PUSH1 0x20 ADD SWAP1 PUSH2 0x223 SWAP3 SWAP2 SWAP1 PUSH2 0xFF4 JUMP JUMPDEST POP POP PUSH2 0x265 JUMP JUMPDEST PUSH1 0x40 MLOAD PUSH32 0x8C379A000000000000000000000000000000000000000000000000000000000 DUP2 MSTORE PUSH1 0x4 ADD PUSH2 0x25C SWAP1 PUSH2 0x1937 JUMP JUMPDEST PUSH1 0x40 MLOAD DUP1 SWAP2 SUB SWAP1 REVERT JUMPDEST POP POP JUMP JUMPDEST PUSH1 0x1 DUP2 DUP2 SLOAD DUP2 LT PUSH2 0x279 JUMPI PUSH1 0x0 DUP1 REVERT JUMPDEST SWAP1 PUSH1 0x0 MSTORE PUSH1 0x20 PUSH1 0x0 KECCAK256 ADD PUSH1 0x0 SWAP2 POP SWAP1 POP DUP1 SLOAD PUSH2 0x294 SWAP1 PUSH2 0x1986 JUMP JUMPDEST DUP1 PUSH1 0x1F ADD PUSH1 0x20 DUP1 SWAP2 DIV MUL PUSH1 0x20 ADD PUSH1 0x40 MLOAD SWAP1 DUP2 ADD PUSH1 0x40 MSTORE DUP1 SWAP3 SWAP2 SWAP1 DUP2 DUP2 MSTORE PUSH1 0x20 ADD DUP3 DUP1 SLOAD PUSH2 0x2C0 SWAP1 PUSH2 0x1986 JUMP JUMPDEST DUP1 ISZERO PUSH2 0x30D JUMPI DUP1 PUSH1 0x1F LT PUSH2 0x2E2 JUMPI PUSH2 0x100 DUP1 DUP4 SLOAD DIV MUL DUP4 MSTORE SWAP2 PUSH1 0x20 ADD SWAP2 PUSH2 0x30D JUMP JUMPDEST DUP3 ADD SWAP2 SWAP1 PUSH1 0x0 MSTORE PUSH1 0x20 PUSH1 0x0 KECCAK256 SWAP1 JUMPDEST DUP2 SLOAD DUP2 MSTORE SWAP1 PUSH1 0x1 ADD SWAP1 PUSH1 0x20 ADD DUP1 DUP4 GT PUSH2 0x2F0 JUMPI DUP3 SWAP1 SUB PUSH1 0x1F AND DUP3 ADD SWAP2 JUMPDEST POP POP POP POP POP DUP2 JUMP JUMPDEST PUSH1 0x0 DUP1 PUSH1 0x0 PUSH8 0xFFFFFFFFFFFFFFFF DUP2 GT ISZERO PUSH2 0x333 JUMPI PUSH2 0x332 PUSH2 0x11D0 JUMP JUMPDEST JUMPDEST PUSH1 0x40 MLOAD SWAP1 DUP1 DUP3 MSTORE DUP1 PUSH1 0x20 MUL PUSH1 0x20 ADD DUP3 ADD PUSH1 0x40 MSTORE DUP1 ISZERO PUSH2 0x361 JUMPI DUP2 PUSH1 0x20 ADD PUSH1 0x20 DUP3 MUL DUP1 CALLDATASIZE DUP4 CALLDATACOPY DUP1 DUP3 ADD SWAP2 POP POP SWAP1 POP JUMPDEST POP SWAP1 POP PUSH1 0x0 PUSH2 0x370 DUP3 DUP6 PUSH2 0x391 JUMP JUMPDEST EQ ISZERO PUSH2 0x380 JUMPI PUSH1 0x1 SWAP2 POP POP PUSH2 0x386 JUMP JUMPDEST PUSH1 0x0 SWAP2 POP POP JUMPDEST SWAP2 SWAP1 POP JUMP JUMPDEST PUSH1 0x0 SLOAD DUP2 JUMP JUMPDEST PUSH1 0x0 DUP1 PUSH32 0x30644E72E131A029B85045B68181585D2833E84879B9709143E1F593F0000001 SWAP1 POP PUSH1 0x0 PUSH2 0x3C1 PUSH2 0x528 JUMP JUMPDEST SWAP1 POP DUP1 PUSH1 0x80 ADD MLOAD MLOAD PUSH1 0x1 DUP7 MLOAD PUSH2 0x3D7 SWAP2 SWAP1 PUSH2 0x1895 JUMP JUMPDEST EQ PUSH2 0x3E1 JUMPI PUSH1 0x0 DUP1 REVERT JUMPDEST PUSH1 0x0 PUSH1 0x40 MLOAD DUP1 PUSH1 0x40 ADD PUSH1 0x40 MSTORE DUP1 PUSH1 0x0 DUP2 MSTORE PUSH1 0x20 ADD PUSH1 0x0 DUP2 MSTORE POP SWAP1 POP PUSH1 0x0 JUMPDEST DUP7 MLOAD DUP2 LT ISZERO PUSH2 0x49A JUMPI DUP4 DUP8 DUP3 DUP2 MLOAD DUP2 LT PUSH2 0x41C JUMPI PUSH2 0x41B PUSH2 0x19B8 JUMP JUMPDEST JUMPDEST PUSH1 0x20 MUL PUSH1 0x20 ADD ADD MLOAD LT PUSH2 0x42E JUMPI PUSH1 0x0 DUP1 REVERT JUMPDEST PUSH2 0x485 DUP3 PUSH2 0x480 DUP6 PUSH1 0x80 ADD MLOAD PUSH1 0x1 DUP6 PUSH2 0x447 SWAP2 SWAP1 PUSH2 0x1895 JUMP JUMPDEST DUP2 MLOAD DUP2 LT PUSH2 0x458 JUMPI PUSH2 0x457 PUSH2 0x19B8 JUMP JUMPDEST JUMPDEST PUSH1 0x20 MUL PUSH1 0x20 ADD ADD MLOAD DUP11 DUP6 DUP2 MLOAD DUP2 LT PUSH2 0x473 JUMPI PUSH2 0x472 PUSH2 0x19B8 JUMP JUMPDEST JUMPDEST PUSH1 0x20 MUL PUSH1 0x20 ADD ADD MLOAD PUSH2 0x8B3 JUMP JUMPDEST PUSH2 0x95A JUMP JUMPDEST SWAP2 POP DUP1 DUP1 PUSH2 0x492 SWAP1 PUSH2 0x19E7 JUMP JUMPDEST SWAP2 POP POP PUSH2 0x3FF JUMP JUMPDEST POP PUSH2 0x4C4 DUP2 DUP4 PUSH1 0x80 ADD MLOAD PUSH1 0x0 DUP2 MLOAD DUP2 LT PUSH2 0x4B7 JUMPI PUSH2 0x4B6 PUSH2 0x19B8 JUMP JUMPDEST JUMPDEST PUSH1 0x20 MUL PUSH1 0x20 ADD ADD MLOAD PUSH2 0x95A JUMP JUMPDEST SWAP1 POP PUSH2 0x50A DUP6 PUSH1 0x0 ADD MLOAD DUP7 PUSH1 0x20 ADD MLOAD PUSH2 0x4DC DUP5 PUSH2 0xA27 JUMP JUMPDEST DUP6 PUSH1 0x40 ADD MLOAD PUSH2 0x4EE DUP11 PUSH1 0x40 ADD MLOAD PUSH2 0xA27 JUMP JUMPDEST DUP8 PUSH1 0x60 ADD MLOAD PUSH2 0x500 DUP10 PUSH1 0x0 ADD MLOAD PUSH2 0xA27 JUMP JUMPDEST DUP10 PUSH1 0x20 ADD MLOAD PUSH2 0xACC JUMP JUMPDEST PUSH2 0x51A JUMPI PUSH1 0x1 SWAP4 POP POP POP POP PUSH2 0x522 JUMP JUMPDEST PUSH1 0x0 SWAP4 POP POP POP POP JUMPDEST SWAP3 SWAP2 POP POP JUMP JUMPDEST PUSH2 0x530 PUSH2 0x107A JUMP JUMPDEST PUSH1 0x40 MLOAD DUP1 PUSH1 0x40 ADD PUSH1 0x40 MSTORE DUP1 PUSH32 0x18520E711C2174112A711616CC9174AEA2D6B6A66818AE453E79157D128E7616 DUP2 MSTORE PUSH1 0x20 ADD PUSH32 0x27DBE4A296D5F8C4E5CEAB3BF2CBE9AF1F9C223814ACD3A2506D16DB8F013620 DUP2 MSTORE POP DUP2 PUSH1 0x0 ADD DUP2 SWAP1 MSTORE POP PUSH1 0x40 MLOAD DUP1 PUSH1 0x40 ADD PUSH1 0x40 MSTORE DUP1 PUSH1 0x40 MLOAD DUP1 PUSH1 0x40 ADD PUSH1 0x40 MSTORE DUP1 PUSH32 0x8604C7DE1122C2BE83EC294DCD7D8AF74B1A0BEB4EA45A69D35B9D792AA6762 DUP2 MSTORE PUSH1 0x20 ADD PUSH31 0x32683B38B707E251C3AB75690247A5AACA4872A62D9EC3E2FB4645333CF2A1 DUP2 MSTORE POP DUP2 MSTORE PUSH1 0x20 ADD PUSH1 0x40 MLOAD DUP1 PUSH1 0x40 ADD PUSH1 0x40 MSTORE DUP1 PUSH32 0x231A7508286EF6CDDD264A9DDEF1A24C0A590144F5589810C5E489D966B21B6B DUP2 MSTORE PUSH1 0x20 ADD PUSH32 0x981B141A13C9829A84D4F7C7C8724779F880CFC46D4E99215EA5C410DE5970E DUP2 MSTORE POP DUP2 MSTORE POP DUP2 PUSH1 0x20 ADD DUP2 SWAP1 MSTORE POP PUSH1 0x40 MLOAD DUP1 PUSH1 0x40 ADD PUSH1 0x40 MSTORE DUP1 PUSH1 0x40 MLOAD DUP1 PUSH1 0x40 ADD PUSH1 0x40 MSTORE DUP1 PUSH32 0x2D6A1F06329737FC5F094D929A4459446D8D962EDA3662B04A439262171A167E DUP2 MSTORE PUSH1 0x20 ADD PUSH32 0x3C01ABB60D4451CDF236E19B5459D74E4F123955A6068FC41621E6CA4D2B111 DUP2 MSTORE POP DUP2 MSTORE PUSH1 0x20 ADD PUSH1 0x40 MLOAD DUP1 PUSH1 0x40 ADD PUSH1 0x40 MSTORE DUP1 PUSH32 0x298ACEB47EBC56CF25374384D5740B0E5ABA96081CAAD6712F3C7AA4A2CF30BE DUP2 MSTORE PUSH1 0x20 ADD PUSH32 0x1CBE2D552C3EEF5DA11295BF3CCA781D8627C2C79785B462754091E50EE55E23 DUP2 MSTORE POP DUP2 MSTORE POP DUP2 PUSH1 0x40 ADD DUP2 SWAP1 MSTORE POP PUSH1 0x40 MLOAD DUP1 PUSH1 0x40 ADD PUSH1 0x40 MSTORE DUP1 PUSH1 0x40 MLOAD DUP1 PUSH1 0x40 ADD PUSH1 0x40 MSTORE DUP1 PUSH32 0x146DCB1E010CC07C9096D4A0E469BCD40E31D10F4F102657971B39EEE59D841C DUP2 MSTORE PUSH1 0x20 ADD PUSH32 0x4B4731AAD2742D847B7504C2603B6DF534EEFA5F31522BE2D925BD4E1838EA2 DUP2 MSTORE POP DUP2 MSTORE PUSH1 0x20 ADD PUSH1 0x40 MLOAD DUP1 PUSH1 0x40 ADD PUSH1 0x40 MSTORE DUP1 PUSH32 0x19DC26629AB006FB6103AE7520056FEC1A520BE25865A5EDD8E1515C1A2A25E7 DUP2 MSTORE PUSH1 0x20 ADD PUSH32 0x2DB4096B08E7882177C4D1AD8FF1F10A4F7C7DBCD0998B85F31A8E85AD49CDF9 DUP2 MSTORE POP DUP2 MSTORE POP DUP2 PUSH1 0x60 ADD DUP2 SWAP1 MSTORE POP PUSH1 0x1 PUSH8 0xFFFFFFFFFFFFFFFF DUP2 GT ISZERO PUSH2 0x7F6 JUMPI PUSH2 0x7F5 PUSH2 0x11D0 JUMP JUMPDEST JUMPDEST PUSH1 0x40 MLOAD SWAP1 DUP1 DUP3 MSTORE DUP1 PUSH1 0x20 MUL PUSH1 0x20 ADD DUP3 ADD PUSH1 0x40 MSTORE DUP1 ISZERO PUSH2 0x82F JUMPI DUP2 PUSH1 0x20 ADD JUMPDEST PUSH2 0x81C PUSH2 0x10C1 JUMP JUMPDEST DUP2 MSTORE PUSH1 0x20 ADD SWAP1 PUSH1 0x1 SWAP1 SUB SWAP1 DUP2 PUSH2 0x814 JUMPI SWAP1 POP JUMPDEST POP DUP2 PUSH1 0x80 ADD DUP2 SWAP1 MSTORE POP PUSH1 0x40 MLOAD DUP1 PUSH1 0x40 ADD PUSH1 0x40 MSTORE DUP1 PUSH32 0x129A47EFD005E8A7C5D6C1C39BFAC6389B40091137E8F0D7DE268D74C9AA82CA DUP2 MSTORE PUSH1 0x20 ADD PUSH32 0x2BBEE24F90C3EDD0356940B51F1510D5F70E0C7B6E8F02C3CC4160F37993D34E DUP2 MSTORE POP DUP2 PUSH1 0x80 ADD MLOAD PUSH1 0x0 DUP2 MLOAD DUP2 LT PUSH2 0x8A5 JUMPI PUSH2 0x8A4 PUSH2 0x19B8 JUMP JUMPDEST JUMPDEST PUSH1 0x20 MUL PUSH1 0x20 ADD ADD DUP2 SWAP1 MSTORE POP SWAP1 JUMP JUMPDEST PUSH2 0x8BB PUSH2 0x10C1 JUMP JUMPDEST PUSH2 0x8C3 PUSH2 0x10DB JUMP JUMPDEST DUP4 PUSH1 0x0 ADD MLOAD DUP2 PUSH1 0x0 PUSH1 0x3 DUP2 LT PUSH2 0x8DC JUMPI PUSH2 0x8DB PUSH2 0x19B8 JUMP JUMPDEST JUMPDEST PUSH1 0x20 MUL ADD DUP2 DUP2 MSTORE POP POP DUP4 PUSH1 0x20 ADD MLOAD DUP2 PUSH1 0x1 PUSH1 0x3 DUP2 LT PUSH2 0x8FE JUMPI PUSH2 0x8FD PUSH2 0x19B8 JUMP JUMPDEST JUMPDEST PUSH1 0x20 MUL ADD DUP2 DUP2 MSTORE POP POP DUP3 DUP2 PUSH1 0x2 PUSH1 0x3 DUP2 LT PUSH2 0x91C JUMPI PUSH2 0x91B PUSH2 0x19B8 JUMP JUMPDEST JUMPDEST PUSH1 0x20 MUL ADD DUP2 DUP2 MSTORE POP POP PUSH1 0x0 PUSH1 0x60 DUP4 PUSH1 0x80 DUP5 PUSH1 0x7 PUSH2 0x7D0 GAS SUB STATICCALL SWAP1 POP DUP1 PUSH1 0x0 DUP2 EQ PUSH2 0x945 JUMPI PUSH2 0x947 JUMP JUMPDEST INVALID JUMPDEST POP DUP1 PUSH2 0x952 JUMPI PUSH1 0x0 DUP1 REVERT JUMPDEST POP POP SWAP3 SWAP2 POP POP JUMP JUMPDEST PUSH2 0x962 PUSH2 0x10C1 JUMP JUMPDEST PUSH2 0x96A PUSH2 0x10FD JUMP JUMPDEST DUP4 PUSH1 0x0 ADD MLOAD DUP2 PUSH1 0x0 PUSH1 0x4 DUP2 LT PUSH2 0x983 JUMPI PUSH2 0x982 PUSH2 0x19B8 JUMP JUMPDEST JUMPDEST PUSH1 0x20 MUL ADD DUP2 DUP2 MSTORE POP POP DUP4 PUSH1 0x20 ADD MLOAD DUP2 PUSH1 0x1 PUSH1 0x4 DUP2 LT PUSH2 0x9A5 JUMPI PUSH2 0x9A4 PUSH2 0x19B8 JUMP JUMPDEST JUMPDEST PUSH1 0x20 MUL ADD DUP2 DUP2 MSTORE POP POP DUP3 PUSH1 0x0 ADD MLOAD DUP2 PUSH1 0x2 PUSH1 0x4 DUP2 LT PUSH2 0x9C7 JUMPI PUSH2 0x9C6 PUSH2 0x19B8 JUMP JUMPDEST JUMPDEST PUSH1 0x20 MUL ADD DUP2 DUP2 MSTORE POP POP DUP3 PUSH1 0x20 ADD MLOAD DUP2 PUSH1 0x3 PUSH1 0x4 DUP2 LT PUSH2 0x9E9 JUMPI PUSH2 0x9E8 PUSH2 0x19B8 JUMP JUMPDEST JUMPDEST PUSH1 0x20 MUL ADD DUP2 DUP2 MSTORE POP POP PUSH1 0x0 PUSH1 0x60 DUP4 PUSH1 0xC0 DUP5 PUSH1 0x6 PUSH2 0x7D0 GAS SUB STATICCALL SWAP1 POP DUP1 PUSH1 0x0 DUP2 EQ PUSH2 0xA12 JUMPI PUSH2 0xA14 JUMP JUMPDEST INVALID JUMPDEST POP DUP1 PUSH2 0xA1F JUMPI PUSH1 0x0 DUP1 REVERT JUMPDEST POP POP SWAP3 SWAP2 POP POP JUMP JUMPDEST PUSH2 0xA2F PUSH2 0x10C1 JUMP JUMPDEST PUSH1 0x0 PUSH32 0x30644E72E131A029B85045B68181585D97816A916871CA8D3C208C16D87CFD47 SWAP1 POP PUSH1 0x0 DUP4 PUSH1 0x0 ADD MLOAD EQ DUP1 ISZERO PUSH2 0xA6C JUMPI POP PUSH1 0x0 DUP4 PUSH1 0x20 ADD MLOAD EQ JUMPDEST ISZERO PUSH2 0xA90 JUMPI PUSH1 0x40 MLOAD DUP1 PUSH1 0x40 ADD PUSH1 0x40 MSTORE DUP1 PUSH1 0x0 DUP2 MSTORE PUSH1 0x20 ADD PUSH1 0x0 DUP2 MSTORE POP SWAP2 POP POP PUSH2 0xAC7 JUMP JUMPDEST PUSH1 0x40 MLOAD DUP1 PUSH1 0x40 ADD PUSH1 0x40 MSTORE DUP1 DUP5 PUSH1 0x0 ADD MLOAD DUP2 MSTORE PUSH1 0x20 ADD DUP3 DUP6 PUSH1 0x20 ADD MLOAD PUSH2 0xAB5 SWAP2 SWAP1 PUSH2 0x1A5F JUMP JUMPDEST DUP4 PUSH2 0xAC0 SWAP2 SWAP1 PUSH2 0x1A90 JUMP JUMPDEST DUP2 MSTORE POP SWAP2 POP POP JUMPDEST SWAP2 SWAP1 POP JUMP JUMPDEST PUSH1 0x0 DUP1 PUSH1 0x4 PUSH8 0xFFFFFFFFFFFFFFFF DUP2 GT ISZERO PUSH2 0xAEA JUMPI PUSH2 0xAE9 PUSH2 0x11D0 JUMP JUMPDEST JUMPDEST PUSH1 0x40 MLOAD SWAP1 DUP1 DUP3 MSTORE DUP1 PUSH1 0x20 MUL PUSH1 0x20 ADD DUP3 ADD PUSH1 0x40 MSTORE DUP1 ISZERO PUSH2 0xB23 JUMPI DUP2 PUSH1 0x20 ADD JUMPDEST PUSH2 0xB10 PUSH2 0x10C1 JUMP JUMPDEST DUP2 MSTORE PUSH1 0x20 ADD SWAP1 PUSH1 0x1 SWAP1 SUB SWAP1 DUP2 PUSH2 0xB08 JUMPI SWAP1 POP JUMPDEST POP SWAP1 POP PUSH1 0x0 PUSH1 0x4 PUSH8 0xFFFFFFFFFFFFFFFF DUP2 GT ISZERO PUSH2 0xB43 JUMPI PUSH2 0xB42 PUSH2 0x11D0 JUMP JUMPDEST JUMPDEST PUSH1 0x40 MLOAD SWAP1 DUP1 DUP3 MSTORE DUP1 PUSH1 0x20 MUL PUSH1 0x20 ADD DUP3 ADD PUSH1 0x40 MSTORE DUP1 ISZERO PUSH2 0xB7C JUMPI DUP2 PUSH1 0x20 ADD JUMPDEST PUSH2 0xB69 PUSH2 0x111F JUMP JUMPDEST DUP2 MSTORE PUSH1 0x20 ADD SWAP1 PUSH1 0x1 SWAP1 SUB SWAP1 DUP2 PUSH2 0xB61 JUMPI SWAP1 POP JUMPDEST POP SWAP1 POP DUP11 DUP3 PUSH1 0x0 DUP2 MLOAD DUP2 LT PUSH2 0xB94 JUMPI PUSH2 0xB93 PUSH2 0x19B8 JUMP JUMPDEST JUMPDEST PUSH1 0x20 MUL PUSH1 0x20 ADD ADD DUP2 SWAP1 MSTORE POP DUP9 DUP3 PUSH1 0x1 DUP2 MLOAD DUP2 LT PUSH2 0xBB4 JUMPI PUSH2 0xBB3 PUSH2 0x19B8 JUMP JUMPDEST JUMPDEST PUSH1 0x20 MUL PUSH1 0x20 ADD ADD DUP2 SWAP1 MSTORE POP DUP7 DUP3 PUSH1 0x2 DUP2 MLOAD DUP2 LT PUSH2 0xBD4 JUMPI PUSH2 0xBD3 PUSH2 0x19B8 JUMP JUMPDEST JUMPDEST PUSH1 0x20 MUL PUSH1 0x20 ADD ADD DUP2 SWAP1 MSTORE POP DUP5 DUP3 PUSH1 0x3 DUP2 MLOAD DUP2 LT PUSH2 0xBF4 JUMPI PUSH2 0xBF3 PUSH2 0x19B8 JUMP JUMPDEST JUMPDEST PUSH1 0x20 MUL PUSH1 0x20 ADD ADD DUP2 SWAP1 MSTORE POP DUP10 DUP2 PUSH1 0x0 DUP2 MLOAD DUP2 LT PUSH2 0xC14 JUMPI PUSH2 0xC13 PUSH2 0x19B8 JUMP JUMPDEST JUMPDEST PUSH1 0x20 MUL PUSH1 0x20 ADD ADD DUP2 SWAP1 MSTORE POP DUP8 DUP2 PUSH1 0x1 DUP2 MLOAD DUP2 LT PUSH2 0xC34 JUMPI PUSH2 0xC33 PUSH2 0x19B8 JUMP JUMPDEST JUMPDEST PUSH1 0x20 MUL PUSH1 0x20 ADD ADD DUP2 SWAP1 MSTORE POP DUP6 DUP2 PUSH1 0x2 DUP2 MLOAD DUP2 LT PUSH2 0xC54 JUMPI PUSH2 0xC53 PUSH2 0x19B8 JUMP JUMPDEST JUMPDEST PUSH1 0x20 MUL PUSH1 0x20 ADD ADD DUP2 SWAP1 MSTORE POP DUP4 DUP2 PUSH1 0x3 DUP2 MLOAD DUP2 LT PUSH2 0xC74 JUMPI PUSH2 0xC73 PUSH2 0x19B8 JUMP JUMPDEST JUMPDEST PUSH1 0x20 MUL PUSH1 0x20 ADD ADD DUP2 SWAP1 MSTORE POP PUSH2 0xC89 DUP3 DUP3 PUSH2 0xC99 JUMP JUMPDEST SWAP3 POP POP POP SWAP9 SWAP8 POP POP POP POP POP POP POP POP JUMP JUMPDEST PUSH1 0x0 DUP2 MLOAD DUP4 MLOAD EQ PUSH2 0xCA9 JUMPI PUSH1 0x0 DUP1 REVERT JUMPDEST PUSH1 0x0 DUP4 MLOAD SWAP1 POP PUSH1 0x0 PUSH1 0x6 DUP3 PUSH2 0xCBE SWAP2 SWAP1 PUSH2 0x1AC4 JUMP JUMPDEST SWAP1 POP PUSH1 0x0 DUP2 PUSH8 0xFFFFFFFFFFFFFFFF DUP2 GT ISZERO PUSH2 0xCDC JUMPI PUSH2 0xCDB PUSH2 0x11D0 JUMP JUMPDEST JUMPDEST PUSH1 0x40 MLOAD SWAP1 DUP1 DUP3 MSTORE DUP1 PUSH1 0x20 MUL PUSH1 0x20 ADD DUP3 ADD PUSH1 0x40 MSTORE DUP1 ISZERO PUSH2 0xD0A JUMPI DUP2 PUSH1 0x20 ADD PUSH1 0x20 DUP3 MUL DUP1 CALLDATASIZE DUP4 CALLDATACOPY DUP1 DUP3 ADD SWAP2 POP POP SWAP1 POP JUMPDEST POP SWAP1 POP PUSH1 0x0 JUMPDEST DUP4 DUP2 LT ISZERO PUSH2 0xF8F JUMPI DUP7 DUP2 DUP2 MLOAD DUP2 LT PUSH2 0xD2B JUMPI PUSH2 0xD2A PUSH2 0x19B8 JUMP JUMPDEST JUMPDEST PUSH1 0x20 MUL PUSH1 0x20 ADD ADD MLOAD PUSH1 0x0 ADD MLOAD DUP3 PUSH1 0x0 PUSH1 0x6 DUP5 PUSH2 0xD47 SWAP2 SWAP1 PUSH2 0x1AC4 JUMP JUMPDEST PUSH2 0xD51 SWAP2 SWAP1 PUSH2 0x1895 JUMP JUMPDEST DUP2 MLOAD DUP2 LT PUSH2 0xD62 JUMPI PUSH2 0xD61 PUSH2 0x19B8 JUMP JUMPDEST JUMPDEST PUSH1 0x20 MUL PUSH1 0x20 ADD ADD DUP2 DUP2 MSTORE POP POP DUP7 DUP2 DUP2 MLOAD DUP2 LT PUSH2 0xD81 JUMPI PUSH2 0xD80 PUSH2 0x19B8 JUMP JUMPDEST JUMPDEST PUSH1 0x20 MUL PUSH1 0x20 ADD ADD MLOAD PUSH1 0x20 ADD MLOAD DUP3 PUSH1 0x1 PUSH1 0x6 DUP5 PUSH2 0xD9D SWAP2 SWAP1 PUSH2 0x1AC4 JUMP JUMPDEST PUSH2 0xDA7 SWAP2 SWAP1 PUSH2 0x1895 JUMP JUMPDEST DUP2 MLOAD DUP2 LT PUSH2 0xDB8 JUMPI PUSH2 0xDB7 PUSH2 0x19B8 JUMP JUMPDEST JUMPDEST PUSH1 0x20 MUL PUSH1 0x20 ADD ADD DUP2 DUP2 MSTORE POP POP DUP6 DUP2 DUP2 MLOAD DUP2 LT PUSH2 0xDD7 JUMPI PUSH2 0xDD6 PUSH2 0x19B8 JUMP JUMPDEST JUMPDEST PUSH1 0x20 MUL PUSH1 0x20 ADD ADD MLOAD PUSH1 0x0 ADD MLOAD PUSH1 0x1 PUSH1 0x2 DUP2 LT PUSH2 0xDF6 JUMPI PUSH2 0xDF5 PUSH2 0x19B8 JUMP JUMPDEST JUMPDEST PUSH1 0x20 MUL ADD MLOAD DUP3 PUSH1 0x2 PUSH1 0x6 DUP5 PUSH2 0xE0B SWAP2 SWAP1 PUSH2 0x1AC4 JUMP JUMPDEST PUSH2 0xE15 SWAP2 SWAP1 PUSH2 0x1895 JUMP JUMPDEST DUP2 MLOAD DUP2 LT PUSH2 0xE26 JUMPI PUSH2 0xE25 PUSH2 0x19B8 JUMP JUMPDEST JUMPDEST PUSH1 0x20 MUL PUSH1 0x20 ADD ADD DUP2 DUP2 MSTORE POP POP DUP6 DUP2 DUP2 MLOAD DUP2 LT PUSH2 0xE45 JUMPI PUSH2 0xE44 PUSH2 0x19B8 JUMP JUMPDEST JUMPDEST PUSH1 0x20 MUL PUSH1 0x20 ADD ADD MLOAD PUSH1 0x0 ADD MLOAD PUSH1 0x0 PUSH1 0x2 DUP2 LT PUSH2 0xE64 JUMPI PUSH2 0xE63 PUSH2 0x19B8 JUMP JUMPDEST JUMPDEST PUSH1 0x20 MUL ADD MLOAD DUP3 PUSH1 0x3 PUSH1 0x6 DUP5 PUSH2 0xE79 SWAP2 SWAP1 PUSH2 0x1AC4 JUMP JUMPDEST PUSH2 0xE83 SWAP2 SWAP1 PUSH2 0x1895 JUMP JUMPDEST DUP2 MLOAD DUP2 LT PUSH2 0xE94 JUMPI PUSH2 0xE93 PUSH2 0x19B8 JUMP JUMPDEST JUMPDEST PUSH1 0x20 MUL PUSH1 0x20 ADD ADD DUP2 DUP2 MSTORE POP POP DUP6 DUP2 DUP2 MLOAD DUP2 LT PUSH2 0xEB3 JUMPI PUSH2 0xEB2 PUSH2 0x19B8 JUMP JUMPDEST JUMPDEST PUSH1 0x20 MUL PUSH1 0x20 ADD ADD MLOAD PUSH1 0x20 ADD MLOAD PUSH1 0x1 PUSH1 0x2 DUP2 LT PUSH2 0xED2 JUMPI PUSH2 0xED1 PUSH2 0x19B8 JUMP JUMPDEST JUMPDEST PUSH1 0x20 MUL ADD MLOAD DUP3 PUSH1 0x4 PUSH1 0x6 DUP5 PUSH2 0xEE7 SWAP2 SWAP1 PUSH2 0x1AC4 JUMP JUMPDEST PUSH2 0xEF1 SWAP2 SWAP1 PUSH2 0x1895 JUMP JUMPDEST DUP2 MLOAD DUP2 LT PUSH2 0xF02 JUMPI PUSH2 0xF01 PUSH2 0x19B8 JUMP JUMPDEST JUMPDEST PUSH1 0x20 MUL PUSH1 0x20 ADD ADD DUP2 DUP2 MSTORE POP POP DUP6 DUP2 DUP2 MLOAD DUP2 LT PUSH2 0xF21 JUMPI PUSH2 0xF20 PUSH2 0x19B8 JUMP JUMPDEST JUMPDEST PUSH1 0x20 MUL PUSH1 0x20 ADD ADD MLOAD PUSH1 0x20 ADD MLOAD PUSH1 0x0 PUSH1 0x2 DUP2 LT PUSH2 0xF40 JUMPI PUSH2 0xF3F PUSH2 0x19B8 JUMP JUMPDEST JUMPDEST PUSH1 0x20 MUL ADD MLOAD DUP3 PUSH1 0x5 PUSH1 0x6 DUP5 PUSH2 0xF55 SWAP2 SWAP1 PUSH2 0x1AC4 JUMP JUMPDEST PUSH2 0xF5F SWAP2 SWAP1 PUSH2 0x1895 JUMP JUMPDEST DUP2 MLOAD DUP2 LT PUSH2 0xF70 JUMPI PUSH2 0xF6F PUSH2 0x19B8 JUMP JUMPDEST JUMPDEST PUSH1 0x20 MUL PUSH1 0x20 ADD ADD DUP2 DUP2 MSTORE POP POP DUP1 DUP1 PUSH2 0xF87 SWAP1 PUSH2 0x19E7 JUMP JUMPDEST SWAP2 POP POP PUSH2 0xD10 JUMP JUMPDEST POP PUSH2 0xF98 PUSH2 0x1145 JUMP JUMPDEST PUSH1 0x0 PUSH1 0x20 DUP3 PUSH1 0x20 DUP7 MUL PUSH1 0x20 DUP7 ADD PUSH1 0x8 PUSH2 0x7D0 GAS SUB STATICCALL SWAP1 POP DUP1 PUSH1 0x0 DUP2 EQ PUSH2 0xFBD JUMPI PUSH2 0xFBF JUMP JUMPDEST INVALID JUMPDEST POP DUP1 PUSH2 0xFCA JUMPI PUSH1 0x0 DUP1 REVERT JUMPDEST PUSH1 0x0 DUP3 PUSH1 0x0 PUSH1 0x1 DUP2 LT PUSH2 0xFE0 JUMPI PUSH2 0xFDF PUSH2 0x19B8 JUMP JUMPDEST JUMPDEST PUSH1 0x20 MUL ADD MLOAD EQ ISZERO SWAP6 POP POP POP POP POP POP SWAP3 SWAP2 POP POP JUMP JUMPDEST DUP3 DUP1 SLOAD PUSH2 0x1000 SWAP1 PUSH2 0x1986 JUMP JUMPDEST SWAP1 PUSH1 0x0 MSTORE PUSH1 0x20 PUSH1 0x0 KECCAK256 SWAP1 PUSH1 0x1F ADD PUSH1 0x20 SWAP1 DIV DUP2 ADD SWAP3 DUP3 PUSH2 0x1022 JUMPI PUSH1 0x0 DUP6 SSTORE PUSH2 0x1069 JUMP JUMPDEST DUP3 PUSH1 0x1F LT PUSH2 0x103B JUMPI DUP1 MLOAD PUSH1 0xFF NOT AND DUP4 DUP1 ADD OR DUP6 SSTORE PUSH2 0x1069 JUMP JUMPDEST DUP3 DUP1 ADD PUSH1 0x1 ADD DUP6 SSTORE DUP3 ISZERO PUSH2 0x1069 JUMPI SWAP2 DUP3 ADD JUMPDEST DUP3 DUP2 GT ISZERO PUSH2 0x1068 JUMPI DUP3 MLOAD DUP3 SSTORE SWAP2 PUSH1 0x20 ADD SWAP2 SWAP1 PUSH1 0x1 ADD SWAP1 PUSH2 0x104D JUMP JUMPDEST JUMPDEST POP SWAP1 POP PUSH2 0x1076 SWAP2 SWAP1 PUSH2 0x1167 JUMP JUMPDEST POP SWAP1 JUMP JUMPDEST PUSH1 0x40 MLOAD DUP1 PUSH1 0xA0 ADD PUSH1 0x40 MSTORE DUP1 PUSH2 0x108D PUSH2 0x10C1 JUMP JUMPDEST DUP2 MSTORE PUSH1 0x20 ADD PUSH2 0x109A PUSH2 0x111F JUMP JUMPDEST DUP2 MSTORE PUSH1 0x20 ADD PUSH2 0x10A7 PUSH2 0x111F JUMP JUMPDEST DUP2 MSTORE PUSH1 0x20 ADD PUSH2 0x10B4 PUSH2 0x111F JUMP JUMPDEST DUP2 MSTORE PUSH1 0x20 ADD PUSH1 0x60 DUP2 MSTORE POP SWAP1 JUMP JUMPDEST PUSH1 0x40 MLOAD DUP1 PUSH1 0x40 ADD PUSH1 0x40 MSTORE DUP1 PUSH1 0x0 DUP2 MSTORE PUSH1 0x20 ADD PUSH1 0x0 DUP2 MSTORE POP SWAP1 JUMP JUMPDEST PUSH1 0x40 MLOAD DUP1 PUSH1 0x60 ADD PUSH1 0x40 MSTORE DUP1 PUSH1 0x3 SWAP1 PUSH1 0x20 DUP3 MUL DUP1 CALLDATASIZE DUP4 CALLDATACOPY DUP1 DUP3 ADD SWAP2 POP POP SWAP1 POP POP SWAP1 JUMP JUMPDEST PUSH1 0x40 MLOAD DUP1 PUSH1 0x80 ADD PUSH1 0x40 MSTORE DUP1 PUSH1 0x4 SWAP1 PUSH1 0x20 DUP3 MUL DUP1 CALLDATASIZE DUP4 CALLDATACOPY DUP1 DUP3 ADD SWAP2 POP POP SWAP1 POP POP SWAP1 JUMP JUMPDEST PUSH1 0x40 MLOAD DUP1 PUSH1 0x40 ADD PUSH1 0x40 MSTORE DUP1 PUSH2 0x1132 PUSH2 0x1184 JUMP JUMPDEST DUP2 MSTORE PUSH1 0x20 ADD PUSH2 0x113F PUSH2 0x1184 JUMP JUMPDEST DUP2 MSTORE POP SWAP1 JUMP JUMPDEST PUSH1 0x40 MLOAD DUP1 PUSH1 0x20 ADD PUSH1 0x40 MSTORE DUP1 PUSH1 0x1 SWAP1 PUSH1 0x20 DUP3 MUL DUP1 CALLDATASIZE DUP4 CALLDATACOPY DUP1 DUP3 ADD SWAP2 POP POP SWAP1 POP POP SWAP1 JUMP JUMPDEST JUMPDEST DUP1 DUP3 GT ISZERO PUSH2 0x1180 JUMPI PUSH1 0x0 DUP2 PUSH1 0x0 SWAP1 SSTORE POP PUSH1 0x1 ADD PUSH2 0x1168 JUMP JUMPDEST POP SWAP1 JUMP JUMPDEST PUSH1 0x40 MLOAD DUP1 PUSH1 0x40 ADD PUSH1 0x40 MSTORE DUP1 PUSH1 0x2 SWAP1 PUSH1 0x20 DUP3 MUL DUP1 CALLDATASIZE DUP4 CALLDATACOPY DUP1 DUP3 ADD SWAP2 POP POP SWAP1 POP POP SWAP1 JUMP JUMPDEST PUSH1 0x0 PUSH1 0x40 MLOAD SWAP1 POP SWAP1 JUMP JUMPDEST PUSH1 0x0 DUP1 REVERT JUMPDEST PUSH1 0x0 DUP1 REVERT JUMPDEST PUSH1 0x0 DUP1 REVERT JUMPDEST PUSH1 0x0 PUSH1 0x1F NOT PUSH1 0x1F DUP4 ADD AND SWAP1 POP SWAP2 SWAP1 POP JUMP JUMPDEST PUSH32 0x4E487B7100000000000000000000000000000000000000000000000000000000 PUSH1 0x0 MSTORE PUSH1 0x41 PUSH1 0x4 MSTORE PUSH1 0x24 PUSH1 0x0 REVERT JUMPDEST PUSH2 0x1208 DUP3 PUSH2 0x11BF JUMP JUMPDEST DUP2 ADD DUP2 DUP2 LT PUSH8 0xFFFFFFFFFFFFFFFF DUP3 GT OR ISZERO PUSH2 0x1227 JUMPI PUSH2 0x1226 PUSH2 0x11D0 JUMP JUMPDEST JUMPDEST DUP1 PUSH1 0x40 MSTORE POP POP POP JUMP JUMPDEST PUSH1 0x0 PUSH2 0x123A PUSH2 0x11A6 JUMP JUMPDEST SWAP1 POP PUSH2 0x1246 DUP3 DUP3 PUSH2 0x11FF JUMP JUMPDEST SWAP2 SWAP1 POP JUMP JUMPDEST PUSH1 0x0 DUP2 SWAP1 POP SWAP2 SWAP1 POP JUMP JUMPDEST PUSH2 0x125E DUP2 PUSH2 0x124B JUMP JUMPDEST DUP2 EQ PUSH2 0x1269 JUMPI PUSH1 0x0 DUP1 REVERT JUMPDEST POP JUMP JUMPDEST PUSH1 0x0 DUP2 CALLDATALOAD SWAP1 POP PUSH2 0x127B DUP2 PUSH2 0x1255 JUMP JUMPDEST SWAP3 SWAP2 POP POP JUMP JUMPDEST PUSH1 0x0 PUSH1 0x40 DUP3 DUP5 SUB SLT ISZERO PUSH2 0x1297 JUMPI PUSH2 0x1296 PUSH2 0x11BA JUMP JUMPDEST JUMPDEST PUSH2 0x12A1 PUSH1 0x40 PUSH2 0x1230 JUMP JUMPDEST SWAP1 POP PUSH1 0x0 PUSH2 0x12B1 DUP5 DUP3 DUP6 ADD PUSH2 0x126C JUMP JUMPDEST PUSH1 0x0 DUP4 ADD MSTORE POP PUSH1 0x20 PUSH2 0x12C5 DUP5 DUP3 DUP6 ADD PUSH2 0x126C JUMP JUMPDEST PUSH1 0x20 DUP4 ADD MSTORE POP SWAP3 SWAP2 POP POP JUMP JUMPDEST PUSH1 0x0 DUP1 REVERT JUMPDEST PUSH1 0x0 PUSH8 0xFFFFFFFFFFFFFFFF DUP3 GT ISZERO PUSH2 0x12F1 JUMPI PUSH2 0x12F0 PUSH2 0x11D0 JUMP JUMPDEST JUMPDEST PUSH1 0x20 DUP3 MUL SWAP1 POP SWAP2 SWAP1 POP JUMP JUMPDEST PUSH1 0x0 DUP1 REVERT JUMPDEST PUSH1 0x0 PUSH2 0x1314 PUSH2 0x130F DUP5 PUSH2 0x12D6 JUMP JUMPDEST PUSH2 0x1230 JUMP JUMPDEST SWAP1 POP DUP1 PUSH1 0x20 DUP5 MUL DUP4 ADD DUP6 DUP2 GT ISZERO PUSH2 0x132E JUMPI PUSH2 0x132D PUSH2 0x12FC JUMP JUMPDEST JUMPDEST DUP4 JUMPDEST DUP2 DUP2 LT ISZERO PUSH2 0x1357 JUMPI DUP1 PUSH2 0x1343 DUP9 DUP3 PUSH2 0x126C JUMP JUMPDEST DUP5 MSTORE PUSH1 0x20 DUP5 ADD SWAP4 POP POP PUSH1 0x20 DUP2 ADD SWAP1 POP PUSH2 0x1330 JUMP JUMPDEST POP POP POP SWAP4 SWAP3 POP POP POP JUMP JUMPDEST PUSH1 0x0 DUP3 PUSH1 0x1F DUP4 ADD SLT PUSH2 0x1376 JUMPI PUSH2 0x1375 PUSH2 0x12D1 JUMP JUMPDEST JUMPDEST PUSH1 0x2 PUSH2 0x1383 DUP5 DUP3 DUP6 PUSH2 0x1301 JUMP JUMPDEST SWAP2 POP POP SWAP3 SWAP2 POP POP JUMP JUMPDEST PUSH1 0x0 PUSH1 0x80 DUP3 DUP5 SUB SLT ISZERO PUSH2 0x13A2 JUMPI PUSH2 0x13A1 PUSH2 0x11BA JUMP JUMPDEST JUMPDEST PUSH2 0x13AC PUSH1 0x40 PUSH2 0x1230 JUMP JUMPDEST SWAP1 POP PUSH1 0x0 PUSH2 0x13BC DUP5 DUP3 DUP6 ADD PUSH2 0x1361 JUMP JUMPDEST PUSH1 0x0 DUP4 ADD MSTORE POP PUSH1 0x40 PUSH2 0x13D0 DUP5 DUP3 DUP6 ADD PUSH2 0x1361 JUMP JUMPDEST PUSH1 0x20 DUP4 ADD MSTORE POP SWAP3 SWAP2 POP POP JUMP JUMPDEST PUSH1 0x0 PUSH2 0x100 DUP3 DUP5 SUB SLT ISZERO PUSH2 0x13F3 JUMPI PUSH2 0x13F2 PUSH2 0x11BA JUMP JUMPDEST JUMPDEST PUSH2 0x13FD PUSH1 0x60 PUSH2 0x1230 JUMP JUMPDEST SWAP1 POP PUSH1 0x0 PUSH2 0x140D DUP5 DUP3 DUP6 ADD PUSH2 0x1281 JUMP JUMPDEST PUSH1 0x0 DUP4 ADD MSTORE POP PUSH1 0x40 PUSH2 0x1421 DUP5 DUP3 DUP6 ADD PUSH2 0x138C JUMP JUMPDEST PUSH1 0x20 DUP4 ADD MSTORE POP PUSH1 0xC0 PUSH2 0x1435 DUP5 DUP3 DUP6 ADD PUSH2 0x1281 JUMP JUMPDEST PUSH1 0x40 DUP4 ADD MSTORE POP SWAP3 SWAP2 POP POP JUMP JUMPDEST PUSH1 0x0 DUP1 REVERT JUMPDEST PUSH1 0x0 PUSH8 0xFFFFFFFFFFFFFFFF DUP3 GT ISZERO PUSH2 0x1461 JUMPI PUSH2 0x1460 PUSH2 0x11D0 JUMP JUMPDEST JUMPDEST PUSH2 0x146A DUP3 PUSH2 0x11BF JUMP JUMPDEST SWAP1 POP PUSH1 0x20 DUP2 ADD SWAP1 POP SWAP2 SWAP1 POP JUMP JUMPDEST DUP3 DUP2 DUP4 CALLDATACOPY PUSH1 0x0 DUP4 DUP4 ADD MSTORE POP POP POP JUMP JUMPDEST PUSH1 0x0 PUSH2 0x1499 PUSH2 0x1494 DUP5 PUSH2 0x1446 JUMP JUMPDEST PUSH2 0x1230 JUMP JUMPDEST SWAP1 POP DUP3 DUP2 MSTORE PUSH1 0x20 DUP2 ADD DUP5 DUP5 DUP5 ADD GT ISZERO PUSH2 0x14B5 JUMPI PUSH2 0x14B4 PUSH2 0x1441 JUMP JUMPDEST JUMPDEST PUSH2 0x14C0 DUP5 DUP3 DUP6 PUSH2 0x1477 JUMP JUMPDEST POP SWAP4 SWAP3 POP POP POP JUMP JUMPDEST PUSH1 0x0 DUP3 PUSH1 0x1F DUP4 ADD SLT PUSH2 0x14DD JUMPI PUSH2 0x14DC PUSH2 0x12D1 JUMP JUMPDEST JUMPDEST DUP2 CALLDATALOAD PUSH2 0x14ED DUP5 DUP3 PUSH1 0x20 DUP7 ADD PUSH2 0x1486 JUMP JUMPDEST SWAP2 POP POP SWAP3 SWAP2 POP POP JUMP JUMPDEST PUSH1 0x0 DUP1 PUSH2 0x120 DUP4 DUP6 SUB SLT ISZERO PUSH2 0x150E JUMPI PUSH2 0x150D PUSH2 0x11B0 JUMP JUMPDEST JUMPDEST PUSH1 0x0 PUSH2 0x151C DUP6 DUP3 DUP7 ADD PUSH2 0x13DC JUMP JUMPDEST SWAP3 POP POP PUSH2 0x100 DUP4 ADD CALLDATALOAD PUSH8 0xFFFFFFFFFFFFFFFF DUP2 GT ISZERO PUSH2 0x153E JUMPI PUSH2 0x153D PUSH2 0x11B5 JUMP JUMPDEST JUMPDEST PUSH2 0x154A DUP6 DUP3 DUP7 ADD PUSH2 0x14C8 JUMP JUMPDEST SWAP2 POP POP SWAP3 POP SWAP3 SWAP1 POP JUMP JUMPDEST PUSH1 0x0 PUSH1 0x20 DUP3 DUP5 SUB SLT ISZERO PUSH2 0x156A JUMPI PUSH2 0x1569 PUSH2 0x11B0 JUMP JUMPDEST JUMPDEST PUSH1 0x0 PUSH2 0x1578 DUP5 DUP3 DUP6 ADD PUSH2 0x126C JUMP JUMPDEST SWAP2 POP POP SWAP3 SWAP2 POP POP JUMP JUMPDEST PUSH1 0x0 DUP2 MLOAD SWAP1 POP SWAP2 SWAP1 POP JUMP JUMPDEST PUSH1 0x0 DUP3 DUP3 MSTORE PUSH1 0x20 DUP3 ADD SWAP1 POP SWAP3 SWAP2 POP POP JUMP JUMPDEST PUSH1 0x0 JUMPDEST DUP4 DUP2 LT ISZERO PUSH2 0x15BB JUMPI DUP1 DUP3 ADD MLOAD DUP2 DUP5 ADD MSTORE PUSH1 0x20 DUP2 ADD SWAP1 POP PUSH2 0x15A0 JUMP JUMPDEST DUP4 DUP2 GT ISZERO PUSH2 0x15CA JUMPI PUSH1 0x0 DUP5 DUP5 ADD MSTORE JUMPDEST POP POP POP POP JUMP JUMPDEST PUSH1 0x0 PUSH2 0x15DB DUP3 PUSH2 0x1581 JUMP JUMPDEST PUSH2 0x15E5 DUP2 DUP6 PUSH2 0x158C JUMP JUMPDEST SWAP4 POP PUSH2 0x15F5 DUP2 DUP6 PUSH1 0x20 DUP7 ADD PUSH2 0x159D JUMP JUMPDEST PUSH2 0x15FE DUP2 PUSH2 0x11BF JUMP JUMPDEST DUP5 ADD SWAP2 POP POP SWAP3 SWAP2 POP POP JUMP JUMPDEST PUSH1 0x0 PUSH1 0x20 DUP3 ADD SWAP1 POP DUP2 DUP2 SUB PUSH1 0x0 DUP4 ADD MSTORE PUSH2 0x1623 DUP2 DUP5 PUSH2 0x15D0 JUMP JUMPDEST SWAP1 POP SWAP3 SWAP2 POP POP JUMP JUMPDEST PUSH1 0x0 PUSH2 0x100 DUP3 DUP5 SUB SLT ISZERO PUSH2 0x1642 JUMPI PUSH2 0x1641 PUSH2 0x11B0 JUMP JUMPDEST JUMPDEST PUSH1 0x0 PUSH2 0x1650 DUP5 DUP3 DUP6 ADD PUSH2 0x13DC JUMP JUMPDEST SWAP2 POP POP SWAP3 SWAP2 POP POP JUMP JUMPDEST PUSH1 0x0 DUP2 ISZERO ISZERO SWAP1 POP SWAP2 SWAP1 POP JUMP JUMPDEST PUSH2 0x166E DUP2 PUSH2 0x1659 JUMP JUMPDEST DUP3 MSTORE POP POP JUMP JUMPDEST PUSH1 0x0 PUSH1 0x20 DUP3 ADD SWAP1 POP PUSH2 0x1689 PUSH1 0x0 DUP4 ADD DUP5 PUSH2 0x1665 JUMP JUMPDEST SWAP3 SWAP2 POP POP JUMP JUMPDEST PUSH2 0x1698 DUP2 PUSH2 0x124B JUMP JUMPDEST DUP3 MSTORE POP POP JUMP JUMPDEST PUSH1 0x0 PUSH1 0x20 DUP3 ADD SWAP1 POP PUSH2 0x16B3 PUSH1 0x0 DUP4 ADD DUP5 PUSH2 0x168F JUMP JUMPDEST SWAP3 SWAP2 POP POP JUMP JUMPDEST PUSH2 0x16C2 DUP2 PUSH2 0x124B JUMP JUMPDEST DUP3 MSTORE POP POP JUMP JUMPDEST PUSH1 0x40 DUP3 ADD PUSH1 0x0 DUP3 ADD MLOAD PUSH2 0x16DE PUSH1 0x0 DUP6 ADD DUP3 PUSH2 0x16B9 JUMP JUMPDEST POP PUSH1 0x20 DUP3 ADD MLOAD PUSH2 0x16F1 PUSH1 0x20 DUP6 ADD DUP3 PUSH2 0x16B9 JUMP JUMPDEST POP POP POP POP JUMP JUMPDEST PUSH1 0x0 PUSH1 0x2 SWAP1 POP SWAP2 SWAP1 POP JUMP JUMPDEST PUSH1 0x0 DUP2 SWAP1 POP SWAP3 SWAP2 POP POP JUMP JUMPDEST PUSH1 0x0 DUP2 SWAP1 POP SWAP2 SWAP1 POP JUMP JUMPDEST PUSH1 0x0 PUSH2 0x1723 DUP4 DUP4 PUSH2 0x16B9 JUMP JUMPDEST PUSH1 0x20 DUP4 ADD SWAP1 POP SWAP3 SWAP2 POP POP JUMP JUMPDEST PUSH1 0x0 PUSH1 0x20 DUP3 ADD SWAP1 POP SWAP2 SWAP1 POP JUMP JUMPDEST PUSH2 0x1745 DUP2 PUSH2 0x16F7 JUMP JUMPDEST PUSH2 0x174F DUP2 DUP5 PUSH2 0x1702 JUMP JUMPDEST SWAP3 POP PUSH2 0x175A DUP3 PUSH2 0x170D JUMP JUMPDEST DUP1 PUSH1 0x0 JUMPDEST DUP4 DUP2 LT ISZERO PUSH2 0x178B JUMPI DUP2 MLOAD PUSH2 0x1772 DUP8 DUP3 PUSH2 0x1717 JUMP JUMPDEST SWAP7 POP PUSH2 0x177D DUP4 PUSH2 0x172F JUMP JUMPDEST SWAP3 POP POP PUSH1 0x1 DUP2 ADD SWAP1 POP PUSH2 0x175E JUMP JUMPDEST POP POP POP POP POP POP JUMP JUMPDEST PUSH1 0x80 DUP3 ADD PUSH1 0x0 DUP3 ADD MLOAD PUSH2 0x17A9 PUSH1 0x0 DUP6 ADD DUP3 PUSH2 0x173C JUMP JUMPDEST POP PUSH1 0x20 DUP3 ADD MLOAD PUSH2 0x17BC PUSH1 0x40 DUP6 ADD DUP3 PUSH2 0x173C JUMP JUMPDEST POP POP POP POP JUMP JUMPDEST PUSH1 0x0 PUSH2 0x100 DUP3 ADD SWAP1 POP PUSH2 0x17D8 PUSH1 0x0 DUP4 ADD DUP7 PUSH2 0x16C8 JUMP JUMPDEST PUSH2 0x17E5 PUSH1 0x40 DUP4 ADD DUP6 PUSH2 0x1793 JUMP JUMPDEST PUSH2 0x17F2 PUSH1 0xC0 DUP4 ADD DUP5 PUSH2 0x16C8 JUMP JUMPDEST SWAP5 SWAP4 POP POP POP POP JUMP JUMPDEST PUSH32 0x50726F6F662068617320616C7265616479206265656E20757365640000000000 PUSH1 0x0 DUP3 ADD MSTORE POP JUMP JUMPDEST PUSH1 0x0 PUSH2 0x1830 PUSH1 0x1B DUP4 PUSH2 0x158C JUMP JUMPDEST SWAP2 POP PUSH2 0x183B DUP3 PUSH2 0x17FA JUMP JUMPDEST PUSH1 0x20 DUP3 ADD SWAP1 POP SWAP2 SWAP1 POP JUMP JUMPDEST PUSH1 0x0 PUSH1 0x20 DUP3 ADD SWAP1 POP DUP2 DUP2 SUB PUSH1 0x0 DUP4 ADD MSTORE PUSH2 0x185F DUP2 PUSH2 0x1823 JUMP JUMPDEST SWAP1 POP SWAP2 SWAP1 POP JUMP JUMPDEST PUSH32 0x4E487B7100000000000000000000000000000000000000000000000000000000 PUSH1 0x0 MSTORE PUSH1 0x11 PUSH1 0x4 MSTORE PUSH1 0x24 PUSH1 0x0 REVERT JUMPDEST PUSH1 0x0 PUSH2 0x18A0 DUP3 PUSH2 0x124B JUMP JUMPDEST SWAP2 POP PUSH2 0x18AB DUP4 PUSH2 0x124B JUMP JUMPDEST SWAP3 POP DUP3 PUSH32 0xFFFFFFFFFFFFFFFFFFFFFFFFFFFFFFFFFFFFFFFFFFFFFFFFFFFFFFFFFFFFFFFF SUB DUP3 GT ISZERO PUSH2 0x18E0 JUMPI PUSH2 0x18DF PUSH2 0x1866 JUMP JUMPDEST JUMPDEST DUP3 DUP3 ADD SWAP1 POP SWAP3 SWAP2 POP POP JUMP JUMPDEST PUSH32 0x496E76616C69642070726F6F6600000000000000000000000000000000000000 PUSH1 0x0 DUP3 ADD MSTORE POP JUMP JUMPDEST PUSH1 0x0 PUSH2 0x1921 PUSH1 0xD DUP4 PUSH2 0x158C JUMP JUMPDEST SWAP2 POP PUSH2 0x192C DUP3 PUSH2 0x18EB JUMP JUMPDEST PUSH1 0x20 DUP3 ADD SWAP1 POP SWAP2 SWAP1 POP JUMP JUMPDEST PUSH1 0x0 PUSH1 0x20 DUP3 ADD SWAP1 POP DUP2 DUP2 SUB PUSH1 0x0 DUP4 ADD MSTORE PUSH2 0x1950 DUP2 PUSH2 0x1914 JUMP JUMPDEST SWAP1 POP SWAP2 SWAP1 POP JUMP JUMPDEST PUSH32 0x4E487B7100000000000000000000000000000000000000000000000000000000 PUSH1 0x0 MSTORE PUSH1 0x22 PUSH1 0x4 MSTORE PUSH1 0x24 PUSH1 0x0 REVERT JUMPDEST PUSH1 0x0 PUSH1 0x2 DUP3 DIV SWAP1 POP PUSH1 0x1 DUP3 AND DUP1 PUSH2 0x199E JUMPI PUSH1 0x7F DUP3 AND SWAP2 POP JUMPDEST PUSH1 0x20 DUP3 LT DUP2 EQ ISZERO PUSH2 0x19B2 JUMPI PUSH2 0x19B1 PUSH2 0x1957 JUMP JUMPDEST JUMPDEST POP SWAP2 SWAP1 POP JUMP JUMPDEST PUSH32 0x4E487B7100000000000000000000000000000000000000000000000000000000 PUSH1 0x0 MSTORE PUSH1 0x32 PUSH1 0x4 MSTORE PUSH1 0x24 PUSH1 0x0 REVERT JUMPDEST PUSH1 0x0 PUSH2 0x19F2 DUP3 PUSH2 0x124B JUMP JUMPDEST SWAP2 POP PUSH32 0xFFFFFFFFFFFFFFFFFFFFFFFFFFFFFFFFFFFFFFFFFFFFFFFFFFFFFFFFFFFFFFFF DUP3 EQ ISZERO PUSH2 0x1A25 JUMPI PUSH2 0x1A24 PUSH2 0x1866 JUMP JUMPDEST JUMPDEST PUSH1 0x1 DUP3 ADD SWAP1 POP SWAP2 SWAP1 POP JUMP JUMPDEST PUSH32 0x4E487B7100000000000000000000000000000000000000000000000000000000 PUSH1 0x0 MSTORE PUSH1 0x12 PUSH1 0x4 MSTORE PUSH1 0x24 PUSH1 0x0 REVERT JUMPDEST PUSH1 0x0 PUSH2 0x1A6A DUP3 PUSH2 0x124B JUMP JUMPDEST SWAP2 POP PUSH2 0x1A75 DUP4 PUSH2 0x124B JUMP JUMPDEST SWAP3 POP DUP3 PUSH2 0x1A85 JUMPI PUSH2 0x1A84 PUSH2 0x1A30 JUMP JUMPDEST JUMPDEST DUP3 DUP3 MOD SWAP1 POP SWAP3 SWAP2 POP POP JUMP JUMPDEST PUSH1 0x0 PUSH2 0x1A9B DUP3 PUSH2 0x124B JUMP JUMPDEST SWAP2 POP PUSH2 0x1AA6 DUP4 PUSH2 0x124B JUMP JUMPDEST SWAP3 POP DUP3 DUP3 LT ISZERO PUSH2 0x1AB9 JUMPI PUSH2 0x1AB8 PUSH2 0x1866 JUMP JUMPDEST JUMPDEST DUP3 DUP3 SUB SWAP1 POP SWAP3 SWAP2 POP POP JUMP JUMPDEST PUSH1 0x0 PUSH2 0x1ACF DUP3 PUSH2 0x124B JUMP JUMPDEST SWAP2 POP PUSH2 0x1ADA DUP4 PUSH2 0x124B JUMP JUMPDEST SWAP3 POP DUP2 PUSH32 0xFFFFFFFFFFFFFFFFFFFFFFFFFFFFFFFFFFFFFFFFFFFFFFFFFFFFFFFFFFFFFFFF DIV DUP4 GT DUP3 ISZERO ISZERO AND ISZERO PUSH2 0x1B13 JUMPI PUSH2 0x1B12 PUSH2 0x1866 JUMP JUMPDEST JUMPDEST DUP3 DUP3 MUL SWAP1 POP SWAP3 SWAP2 POP POP JUMP INVALID LOG2 PUSH5 0x6970667358 0x22 SLT KECCAK256 0xD6 0xE SWAP15 PUSH24 0xCFF3C6701A2495A88D3D0DC32697D889FDB24F7D1C46B796 0xE CALLDATACOPY JUMP 0xC8 PUSH5 0x736F6C6343 STOP ADDMOD MULMOD STOP CALLER "
        },
        "methodIdentifiers": {
          "broadcastData(((uint256,uint256),(uint256[2],uint256[2]),(uint256,uint256)),string)": "42b67319",
          "ipfsCIDs(uint256)": "72ef494a",
          "uploadCount()": "fae71b64",
          "verifyTx(((uint256,uint256),(uint256[2],uint256[2]),(uint256,uint256)))": "f6af0311"
        }
      }
    }
  }
}