{
  "contracts/demoContracts/demoVerifier.sol": {
    "Verifier": {
      "abi": [
        {
          "inputs": [
            {
              "components": [
                {
                  "components": [
                    {
                      "internalType": "uint256",
                      "name": "X",
                      "type": "uint256"
                    },
                    {
                      "internalType": "uint256",
                      "name": "Y",
                      "type": "uint256"
                    }
                  ],
                  "internalType": "struct Pairing.G1Point",
                  "name": "a",
                  "type": "tuple"
                },
                {
                  "components": [
                    {
                      "internalType": "uint256[2]",
                      "name": "X",
                      "type": "uint256[2]"
                    },
                    {
                      "internalType": "uint256[2]",
                      "name": "Y",
                      "type": "uint256[2]"
                    }
                  ],
                  "internalType": "struct Pairing.G2Point",
                  "name": "b",
                  "type": "tuple"
                },
                {
                  "components": [
                    {
                      "internalType": "uint256",
                      "name": "X",
                      "type": "uint256"
                    },
                    {
                      "internalType": "uint256",
                      "name": "Y",
                      "type": "uint256"
                    }
                  ],
                  "internalType": "struct Pairing.G1Point",
                  "name": "c",
                  "type": "tuple"
                }
              ],
              "internalType": "struct Verifier.Proof",
              "name": "proof",
              "type": "tuple"
            }
          ],
          "name": "verifyTx",
          "outputs": [
            {
              "internalType": "bool",
              "name": "r",
              "type": "bool"
            }
          ],
          "stateMutability": "view",
          "type": "function"
        }
      ],
      "evm": {
        "bytecode": {
          "linkReferences": {},
          "object": "608060405234801561001057600080fd5b50611363806100206000396000f3fe608060405234801561001057600080fd5b506004361061002b5760003560e01c8063f6af031114610030575b600080fd5b61004a600480360381019061004591906110de565b610060565b6040516100579190611127565b60405180910390f35b600080600067ffffffffffffffff81111561007e5761007d610e6d565b5b6040519080825280602002602001820160405280156100ac5781602001602082028036833780820191505090505b50905060006100bb82856100d6565b14156100cb5760019150506100d1565b60009150505b919050565b6000807f30644e72e131a029b85045b68181585d2833e84879b9709143e1f593f00000019050600061010661026d565b90508060800151516001865161011c9190611171565b1461012657600080fd5b60006040518060400160405280600081526020016000815250905060005b86518110156101df5783878281518110610161576101606111c7565b5b60200260200101511061017357600080fd5b6101ca826101c5856080015160018561018c9190611171565b8151811061019d5761019c6111c7565b5b60200260200101518a85815181106101b8576101b76111c7565b5b60200260200101516105f8565b61069f565b915080806101d7906111f6565b915050610144565b506102098183608001516000815181106101fc576101fb6111c7565b5b602002602001015161069f565b905061024f856000015186602001516102218461076c565b85604001516102338a6040015161076c565b8760600151610245896000015161076c565b8960200151610811565b61025f5760019350505050610267565b600093505050505b92915050565b610275610d39565b60405180604001604052807f18520e711c2174112a711616cc9174aea2d6b6a66818ae453e79157d128e761681526020017f27dbe4a296d5f8c4e5ceab3bf2cbe9af1f9c223814acd3a2506d16db8f0136208152508160000181905250604051806040016040528060405180604001604052807f08604c7de1122c2be83ec294dcd7d8af74b1a0beb4ea45a69d35b9d792aa676281526020017e32683b38b707e251c3ab75690247a5aaca4872a62d9ec3e2fb4645333cf2a1815250815260200160405180604001604052807f231a7508286ef6cddd264a9ddef1a24c0a590144f5589810c5e489d966b21b6b81526020017f0981b141a13c9829a84d4f7c7c8724779f880cfc46d4e99215ea5c410de5970e8152508152508160200181905250604051806040016040528060405180604001604052807f2d6a1f06329737fc5f094d929a4459446d8d962eda3662b04a439262171a167e81526020017f03c01abb60d4451cdf236e19b5459d74e4f123955a6068fc41621e6ca4d2b111815250815260200160405180604001604052807f298aceb47ebc56cf25374384d5740b0e5aba96081caad6712f3c7aa4a2cf30be81526020017f1cbe2d552c3eef5da11295bf3cca781d8627c2c79785b462754091e50ee55e238152508152508160400181905250604051806040016040528060405180604001604052807f146dcb1e010cc07c9096d4a0e469bcd40e31d10f4f102657971b39eee59d841c81526020017f04b4731aad2742d847b7504c2603b6df534eefa5f31522be2d925bd4e1838ea2815250815260200160405180604001604052807f19dc26629ab006fb6103ae7520056fec1a520be25865a5edd8e1515c1a2a25e781526020017f2db4096b08e7882177c4d1ad8ff1f10a4f7c7dbcd0998b85f31a8e85ad49cdf98152508152508160600181905250600167ffffffffffffffff81111561053b5761053a610e6d565b5b60405190808252806020026020018201604052801561057457816020015b610561610d80565b8152602001906001900390816105595790505b50816080018190525060405180604001604052807f129a47efd005e8a7c5d6c1c39bfac6389b40091137e8f0d7de268d74c9aa82ca81526020017f2bbee24f90c3edd0356940b51f1510d5f70e0c7b6e8f02c3cc4160f37993d34e81525081608001516000815181106105ea576105e96111c7565b5b602002602001018190525090565b610600610d80565b610608610d9a565b836000015181600060038110610621576106206111c7565b5b602002018181525050836020015181600160038110610643576106426111c7565b5b6020020181815250508281600260038110610661576106606111c7565b5b602002018181525050600060608360808460076107d05a03fa9050806000811461068a5761068c565bfe5b508061069757600080fd5b505092915050565b6106a7610d80565b6106af610dbc565b8360000151816000600481106106c8576106c76111c7565b5b6020020181815250508360200151816001600481106106ea576106e96111c7565b5b60200201818152505082600001518160026004811061070c5761070b6111c7565b5b60200201818152505082602001518160036004811061072e5761072d6111c7565b5b602002018181525050600060608360c08460066107d05a03fa9050806000811461075757610759565bfe5b508061076457600080fd5b505092915050565b610774610d80565b60007f30644e72e131a029b85045b68181585d97816a916871ca8d3c208c16d87cfd479050600083600001511480156107b1575060008360200151145b156107d557604051806040016040528060008152602001600081525091505061080c565b6040518060400160405280846000015181526020018285602001516107fa919061126e565b83610805919061129f565b8152509150505b919050565b600080600467ffffffffffffffff81111561082f5761082e610e6d565b5b60405190808252806020026020018201604052801561086857816020015b610855610d80565b81526020019060019003908161084d5790505b5090506000600467ffffffffffffffff81111561088857610887610e6d565b5b6040519080825280602002602001820160405280156108c157816020015b6108ae610dde565b8152602001906001900390816108a65790505b5090508a826000815181106108d9576108d86111c7565b5b602002602001018190525088826001815181106108f9576108f86111c7565b5b60200260200101819052508682600281518110610919576109186111c7565b5b60200260200101819052508482600381518110610939576109386111c7565b5b60200260200101819052508981600081518110610959576109586111c7565b5b60200260200101819052508781600181518110610979576109786111c7565b5b60200260200101819052508581600281518110610999576109986111c7565b5b602002602001018190525083816003815181106109b9576109b86111c7565b5b60200260200101819052506109ce82826109de565b9250505098975050505050505050565b600081518351146109ee57600080fd5b6000835190506000600682610a0391906112d3565b905060008167ffffffffffffffff811115610a2157610a20610e6d565b5b604051908082528060200260200182016040528015610a4f5781602001602082028036833780820191505090505b50905060005b83811015610cd457868181518110610a7057610a6f6111c7565b5b602002602001015160000151826000600684610a8c91906112d3565b610a969190611171565b81518110610aa757610aa66111c7565b5b602002602001018181525050868181518110610ac657610ac56111c7565b5b602002602001015160200151826001600684610ae291906112d3565b610aec9190611171565b81518110610afd57610afc6111c7565b5b602002602001018181525050858181518110610b1c57610b1b6111c7565b5b602002602001015160000151600160028110610b3b57610b3a6111c7565b5b6020020151826002600684610b5091906112d3565b610b5a9190611171565b81518110610b6b57610b6a6111c7565b5b602002602001018181525050858181518110610b8a57610b896111c7565b5b602002602001015160000151600060028110610ba957610ba86111c7565b5b6020020151826003600684610bbe91906112d3565b610bc89190611171565b81518110610bd957610bd86111c7565b5b602002602001018181525050858181518110610bf857610bf76111c7565b5b602002602001015160200151600160028110610c1757610c166111c7565b5b6020020151826004600684610c2c91906112d3565b610c369190611171565b81518110610c4757610c466111c7565b5b602002602001018181525050858181518110610c6657610c656111c7565b5b602002602001015160200151600060028110610c8557610c846111c7565b5b6020020151826005600684610c9a91906112d3565b610ca49190611171565b81518110610cb557610cb46111c7565b5b6020026020010181815250508080610ccc906111f6565b915050610a55565b50610cdd610e04565b6000602082602086026020860160086107d05a03fa90508060008114610d0257610d04565bfe5b5080610d0f57600080fd5b600082600060018110610d2557610d246111c7565b5b602002015114159550505050505092915050565b6040518060a00160405280610d4c610d80565b8152602001610d59610dde565b8152602001610d66610dde565b8152602001610d73610dde565b8152602001606081525090565b604051806040016040528060008152602001600081525090565b6040518060600160405280600390602082028036833780820191505090505090565b6040518060800160405280600490602082028036833780820191505090505090565b6040518060400160405280610df1610e26565b8152602001610dfe610e26565b81525090565b6040518060200160405280600190602082028036833780820191505090505090565b6040518060400160405280600290602082028036833780820191505090505090565b6000604051905090565b600080fd5b600080fd5b6000601f19601f8301169050919050565b7f4e487b7100000000000000000000000000000000000000000000000000000000600052604160045260246000fd5b610ea582610e5c565b810181811067ffffffffffffffff82111715610ec457610ec3610e6d565b5b80604052505050565b6000610ed7610e48565b9050610ee38282610e9c565b919050565b6000819050919050565b610efb81610ee8565b8114610f0657600080fd5b50565b600081359050610f1881610ef2565b92915050565b600060408284031215610f3457610f33610e57565b5b610f3e6040610ecd565b90506000610f4e84828501610f09565b6000830152506020610f6284828501610f09565b60208301525092915050565b600080fd5b600067ffffffffffffffff821115610f8e57610f8d610e6d565b5b602082029050919050565b600080fd5b6000610fb1610fac84610f73565b610ecd565b90508060208402830185811115610fcb57610fca610f99565b5b835b81811015610ff45780610fe08882610f09565b845260208401935050602081019050610fcd565b5050509392505050565b600082601f83011261101357611012610f6e565b5b6002611020848285610f9e565b91505092915050565b60006080828403121561103f5761103e610e57565b5b6110496040610ecd565b9050600061105984828501610ffe565b600083015250604061106d84828501610ffe565b60208301525092915050565b600061010082840312156110905761108f610e57565b5b61109a6060610ecd565b905060006110aa84828501610f1e565b60008301525060406110be84828501611029565b60208301525060c06110d284828501610f1e565b60408301525092915050565b600061010082840312156110f5576110f4610e52565b5b600061110384828501611079565b91505092915050565b60008115159050919050565b6111218161110c565b82525050565b600060208201905061113c6000830184611118565b92915050565b7f4e487b7100000000000000000000000000000000000000000000000000000000600052601160045260246000fd5b600061117c82610ee8565b915061118783610ee8565b9250827fffffffffffffffffffffffffffffffffffffffffffffffffffffffffffffffff038211156111bc576111bb611142565b5b828201905092915050565b7f4e487b7100000000000000000000000000000000000000000000000000000000600052603260045260246000fd5b600061120182610ee8565b91507fffffffffffffffffffffffffffffffffffffffffffffffffffffffffffffffff82141561123457611233611142565b5b600182019050919050565b7f4e487b7100000000000000000000000000000000000000000000000000000000600052601260045260246000fd5b600061127982610ee8565b915061128483610ee8565b9250826112945761129361123f565b5b828206905092915050565b60006112aa82610ee8565b91506112b583610ee8565b9250828210156112c8576112c7611142565b5b828203905092915050565b60006112de82610ee8565b91506112e983610ee8565b9250817fffffffffffffffffffffffffffffffffffffffffffffffffffffffffffffffff048311821515161561132257611321611142565b5b82820290509291505056fea2646970667358221220cc337bde69781494ad4de969e941a8275966d980b49d7f23e31e79ec7b7b8a1064736f6c63430008090033",
          "opcodes": "PUSH1 0x80 PUSH1 0x40 MSTORE CALLVALUE DUP1 ISZERO PUSH2 0x10 JUMPI PUSH1 0x0 DUP1 REVERT JUMPDEST POP PUSH2 0x1363 DUP1 PUSH2 0x20 PUSH1 0x0 CODECOPY PUSH1 0x0 RETURN INVALID PUSH1 0x80 PUSH1 0x40 MSTORE CALLVALUE DUP1 ISZERO PUSH2 0x10 JUMPI PUSH1 0x0 DUP1 REVERT JUMPDEST POP PUSH1 0x4 CALLDATASIZE LT PUSH2 0x2B JUMPI PUSH1 0x0 CALLDATALOAD PUSH1 0xE0 SHR DUP1 PUSH4 0xF6AF0311 EQ PUSH2 0x30 JUMPI JUMPDEST PUSH1 0x0 DUP1 REVERT JUMPDEST PUSH2 0x4A PUSH1 0x4 DUP1 CALLDATASIZE SUB DUP2 ADD SWAP1 PUSH2 0x45 SWAP2 SWAP1 PUSH2 0x10DE JUMP JUMPDEST PUSH2 0x60 JUMP JUMPDEST PUSH1 0x40 MLOAD PUSH2 0x57 SWAP2 SWAP1 PUSH2 0x1127 JUMP JUMPDEST PUSH1 0x40 MLOAD DUP1 SWAP2 SUB SWAP1 RETURN JUMPDEST PUSH1 0x0 DUP1 PUSH1 0x0 PUSH8 0xFFFFFFFFFFFFFFFF DUP2 GT ISZERO PUSH2 0x7E JUMPI PUSH2 0x7D PUSH2 0xE6D JUMP JUMPDEST JUMPDEST PUSH1 0x40 MLOAD SWAP1 DUP1 DUP3 MSTORE DUP1 PUSH1 0x20 MUL PUSH1 0x20 ADD DUP3 ADD PUSH1 0x40 MSTORE DUP1 ISZERO PUSH2 0xAC JUMPI DUP2 PUSH1 0x20 ADD PUSH1 0x20 DUP3 MUL DUP1 CALLDATASIZE DUP4 CALLDATACOPY DUP1 DUP3 ADD SWAP2 POP POP SWAP1 POP JUMPDEST POP SWAP1 POP PUSH1 0x0 PUSH2 0xBB DUP3 DUP6 PUSH2 0xD6 JUMP JUMPDEST EQ ISZERO PUSH2 0xCB JUMPI PUSH1 0x1 SWAP2 POP POP PUSH2 0xD1 JUMP JUMPDEST PUSH1 0x0 SWAP2 POP POP JUMPDEST SWAP2 SWAP1 POP JUMP JUMPDEST PUSH1 0x0 DUP1 PUSH32 0x30644E72E131A029B85045B68181585D2833E84879B9709143E1F593F0000001 SWAP1 POP PUSH1 0x0 PUSH2 0x106 PUSH2 0x26D JUMP JUMPDEST SWAP1 POP DUP1 PUSH1 0x80 ADD MLOAD MLOAD PUSH1 0x1 DUP7 MLOAD PUSH2 0x11C SWAP2 SWAP1 PUSH2 0x1171 JUMP JUMPDEST EQ PUSH2 0x126 JUMPI PUSH1 0x0 DUP1 REVERT JUMPDEST PUSH1 0x0 PUSH1 0x40 MLOAD DUP1 PUSH1 0x40 ADD PUSH1 0x40 MSTORE DUP1 PUSH1 0x0 DUP2 MSTORE PUSH1 0x20 ADD PUSH1 0x0 DUP2 MSTORE POP SWAP1 POP PUSH1 0x0 JUMPDEST DUP7 MLOAD DUP2 LT ISZERO PUSH2 0x1DF JUMPI DUP4 DUP8 DUP3 DUP2 MLOAD DUP2 LT PUSH2 0x161 JUMPI PUSH2 0x160 PUSH2 0x11C7 JUMP JUMPDEST JUMPDEST PUSH1 0x20 MUL PUSH1 0x20 ADD ADD MLOAD LT PUSH2 0x173 JUMPI PUSH1 0x0 DUP1 REVERT JUMPDEST PUSH2 0x1CA DUP3 PUSH2 0x1C5 DUP6 PUSH1 0x80 ADD MLOAD PUSH1 0x1 DUP6 PUSH2 0x18C SWAP2 SWAP1 PUSH2 0x1171 JUMP JUMPDEST DUP2 MLOAD DUP2 LT PUSH2 0x19D JUMPI PUSH2 0x19C PUSH2 0x11C7 JUMP JUMPDEST JUMPDEST PUSH1 0x20 MUL PUSH1 0x20 ADD ADD MLOAD DUP11 DUP6 DUP2 MLOAD DUP2 LT PUSH2 0x1B8 JUMPI PUSH2 0x1B7 PUSH2 0x11C7 JUMP JUMPDEST JUMPDEST PUSH1 0x20 MUL PUSH1 0x20 ADD ADD MLOAD PUSH2 0x5F8 JUMP JUMPDEST PUSH2 0x69F JUMP JUMPDEST SWAP2 POP DUP1 DUP1 PUSH2 0x1D7 SWAP1 PUSH2 0x11F6 JUMP JUMPDEST SWAP2 POP POP PUSH2 0x144 JUMP JUMPDEST POP PUSH2 0x209 DUP2 DUP4 PUSH1 0x80 ADD MLOAD PUSH1 0x0 DUP2 MLOAD DUP2 LT PUSH2 0x1FC JUMPI PUSH2 0x1FB PUSH2 0x11C7 JUMP JUMPDEST JUMPDEST PUSH1 0x20 MUL PUSH1 0x20 ADD ADD MLOAD PUSH2 0x69F JUMP JUMPDEST SWAP1 POP PUSH2 0x24F DUP6 PUSH1 0x0 ADD MLOAD DUP7 PUSH1 0x20 ADD MLOAD PUSH2 0x221 DUP5 PUSH2 0x76C JUMP JUMPDEST DUP6 PUSH1 0x40 ADD MLOAD PUSH2 0x233 DUP11 PUSH1 0x40 ADD MLOAD PUSH2 0x76C JUMP JUMPDEST DUP8 PUSH1 0x60 ADD MLOAD PUSH2 0x245 DUP10 PUSH1 0x0 ADD MLOAD PUSH2 0x76C JUMP JUMPDEST DUP10 PUSH1 0x20 ADD MLOAD PUSH2 0x811 JUMP JUMPDEST PUSH2 0x25F JUMPI PUSH1 0x1 SWAP4 POP POP POP POP PUSH2 0x267 JUMP JUMPDEST PUSH1 0x0 SWAP4 POP POP POP POP JUMPDEST SWAP3 SWAP2 POP POP JUMP JUMPDEST PUSH2 0x275 PUSH2 0xD39 JUMP JUMPDEST PUSH1 0x40 MLOAD DUP1 PUSH1 0x40 ADD PUSH1 0x40 MSTORE DUP1 PUSH32 0x18520E711C2174112A711616CC9174AEA2D6B6A66818AE453E79157D128E7616 DUP2 MSTORE PUSH1 0x20 ADD PUSH32 0x27DBE4A296D5F8C4E5CEAB3BF2CBE9AF1F9C223814ACD3A2506D16DB8F013620 DUP2 MSTORE POP DUP2 PUSH1 0x0 ADD DUP2 SWAP1 MSTORE POP PUSH1 0x40 MLOAD DUP1 PUSH1 0x40 ADD PUSH1 0x40 MSTORE DUP1 PUSH1 0x40 MLOAD DUP1 PUSH1 0x40 ADD PUSH1 0x40 MSTORE DUP1 PUSH32 0x8604C7DE1122C2BE83EC294DCD7D8AF74B1A0BEB4EA45A69D35B9D792AA6762 DUP2 MSTORE PUSH1 0x20 ADD PUSH31 0x32683B38B707E251C3AB75690247A5AACA4872A62D9EC3E2FB4645333CF2A1 DUP2 MSTORE POP DUP2 MSTORE PUSH1 0x20 ADD PUSH1 0x40 MLOAD DUP1 PUSH1 0x40 ADD PUSH1 0x40 MSTORE DUP1 PUSH32 0x231A7508286EF6CDDD264A9DDEF1A24C0A590144F5589810C5E489D966B21B6B DUP2 MSTORE PUSH1 0x20 ADD PUSH32 0x981B141A13C9829A84D4F7C7C8724779F880CFC46D4E99215EA5C410DE5970E DUP2 MSTORE POP DUP2 MSTORE POP DUP2 PUSH1 0x20 ADD DUP2 SWAP1 MSTORE POP PUSH1 0x40 MLOAD DUP1 PUSH1 0x40 ADD PUSH1 0x40 MSTORE DUP1 PUSH1 0x40 MLOAD DUP1 PUSH1 0x40 ADD PUSH1 0x40 MSTORE DUP1 PUSH32 0x2D6A1F06329737FC5F094D929A4459446D8D962EDA3662B04A439262171A167E DUP2 MSTORE PUSH1 0x20 ADD PUSH32 0x3C01ABB60D4451CDF236E19B5459D74E4F123955A6068FC41621E6CA4D2B111 DUP2 MSTORE POP DUP2 MSTORE PUSH1 0x20 ADD PUSH1 0x40 MLOAD DUP1 PUSH1 0x40 ADD PUSH1 0x40 MSTORE DUP1 PUSH32 0x298ACEB47EBC56CF25374384D5740B0E5ABA96081CAAD6712F3C7AA4A2CF30BE DUP2 MSTORE PUSH1 0x20 ADD PUSH32 0x1CBE2D552C3EEF5DA11295BF3CCA781D8627C2C79785B462754091E50EE55E23 DUP2 MSTORE POP DUP2 MSTORE POP DUP2 PUSH1 0x40 ADD DUP2 SWAP1 MSTORE POP PUSH1 0x40 MLOAD DUP1 PUSH1 0x40 ADD PUSH1 0x40 MSTORE DUP1 PUSH1 0x40 MLOAD DUP1 PUSH1 0x40 ADD PUSH1 0x40 MSTORE DUP1 PUSH32 0x146DCB1E010CC07C9096D4A0E469BCD40E31D10F4F102657971B39EEE59D841C DUP2 MSTORE PUSH1 0x20 ADD PUSH32 0x4B4731AAD2742D847B7504C2603B6DF534EEFA5F31522BE2D925BD4E1838EA2 DUP2 MSTORE POP DUP2 MSTORE PUSH1 0x20 ADD PUSH1 0x40 MLOAD DUP1 PUSH1 0x40 ADD PUSH1 0x40 MSTORE DUP1 PUSH32 0x19DC26629AB006FB6103AE7520056FEC1A520BE25865A5EDD8E1515C1A2A25E7 DUP2 MSTORE PUSH1 0x20 ADD PUSH32 0x2DB4096B08E7882177C4D1AD8FF1F10A4F7C7DBCD0998B85F31A8E85AD49CDF9 DUP2 MSTORE POP DUP2 MSTORE POP DUP2 PUSH1 0x60 ADD DUP2 SWAP1 MSTORE POP PUSH1 0x1 PUSH8 0xFFFFFFFFFFFFFFFF DUP2 GT ISZERO PUSH2 0x53B JUMPI PUSH2 0x53A PUSH2 0xE6D JUMP JUMPDEST JUMPDEST PUSH1 0x40 MLOAD SWAP1 DUP1 DUP3 MSTORE DUP1 PUSH1 0x20 MUL PUSH1 0x20 ADD DUP3 ADD PUSH1 0x40 MSTORE DUP1 ISZERO PUSH2 0x574 JUMPI DUP2 PUSH1 0x20 ADD JUMPDEST PUSH2 0x561 PUSH2 0xD80 JUMP JUMPDEST DUP2 MSTORE PUSH1 0x20 ADD SWAP1 PUSH1 0x1 SWAP1 SUB SWAP1 DUP2 PUSH2 0x559 JUMPI SWAP1 POP JUMPDEST POP DUP2 PUSH1 0x80 ADD DUP2 SWAP1 MSTORE POP PUSH1 0x40 MLOAD DUP1 PUSH1 0x40 ADD PUSH1 0x40 MSTORE DUP1 PUSH32 0x129A47EFD005E8A7C5D6C1C39BFAC6389B40091137E8F0D7DE268D74C9AA82CA DUP2 MSTORE PUSH1 0x20 ADD PUSH32 0x2BBEE24F90C3EDD0356940B51F1510D5F70E0C7B6E8F02C3CC4160F37993D34E DUP2 MSTORE POP DUP2 PUSH1 0x80 ADD MLOAD PUSH1 0x0 DUP2 MLOAD DUP2 LT PUSH2 0x5EA JUMPI PUSH2 0x5E9 PUSH2 0x11C7 JUMP JUMPDEST JUMPDEST PUSH1 0x20 MUL PUSH1 0x20 ADD ADD DUP2 SWAP1 MSTORE POP SWAP1 JUMP JUMPDEST PUSH2 0x600 PUSH2 0xD80 JUMP JUMPDEST PUSH2 0x608 PUSH2 0xD9A JUMP JUMPDEST DUP4 PUSH1 0x0 ADD MLOAD DUP2 PUSH1 0x0 PUSH1 0x3 DUP2 LT PUSH2 0x621 JUMPI PUSH2 0x620 PUSH2 0x11C7 JUMP JUMPDEST JUMPDEST PUSH1 0x20 MUL ADD DUP2 DUP2 MSTORE POP POP DUP4 PUSH1 0x20 ADD MLOAD DUP2 PUSH1 0x1 PUSH1 0x3 DUP2 LT PUSH2 0x643 JUMPI PUSH2 0x642 PUSH2 0x11C7 JUMP JUMPDEST JUMPDEST PUSH1 0x20 MUL ADD DUP2 DUP2 MSTORE POP POP DUP3 DUP2 PUSH1 0x2 PUSH1 0x3 DUP2 LT PUSH2 0x661 JUMPI PUSH2 0x660 PUSH2 0x11C7 JUMP JUMPDEST JUMPDEST PUSH1 0x20 MUL ADD DUP2 DUP2 MSTORE POP POP PUSH1 0x0 PUSH1 0x60 DUP4 PUSH1 0x80 DUP5 PUSH1 0x7 PUSH2 0x7D0 GAS SUB STATICCALL SWAP1 POP DUP1 PUSH1 0x0 DUP2 EQ PUSH2 0x68A JUMPI PUSH2 0x68C JUMP JUMPDEST INVALID JUMPDEST POP DUP1 PUSH2 0x697 JUMPI PUSH1 0x0 DUP1 REVERT JUMPDEST POP POP SWAP3 SWAP2 POP POP JUMP JUMPDEST PUSH2 0x6A7 PUSH2 0xD80 JUMP JUMPDEST PUSH2 0x6AF PUSH2 0xDBC JUMP JUMPDEST DUP4 PUSH1 0x0 ADD MLOAD DUP2 PUSH1 0x0 PUSH1 0x4 DUP2 LT PUSH2 0x6C8 JUMPI PUSH2 0x6C7 PUSH2 0x11C7 JUMP JUMPDEST JUMPDEST PUSH1 0x20 MUL ADD DUP2 DUP2 MSTORE POP POP DUP4 PUSH1 0x20 ADD MLOAD DUP2 PUSH1 0x1 PUSH1 0x4 DUP2 LT PUSH2 0x6EA JUMPI PUSH2 0x6E9 PUSH2 0x11C7 JUMP JUMPDEST JUMPDEST PUSH1 0x20 MUL ADD DUP2 DUP2 MSTORE POP POP DUP3 PUSH1 0x0 ADD MLOAD DUP2 PUSH1 0x2 PUSH1 0x4 DUP2 LT PUSH2 0x70C JUMPI PUSH2 0x70B PUSH2 0x11C7 JUMP JUMPDEST JUMPDEST PUSH1 0x20 MUL ADD DUP2 DUP2 MSTORE POP POP DUP3 PUSH1 0x20 ADD MLOAD DUP2 PUSH1 0x3 PUSH1 0x4 DUP2 LT PUSH2 0x72E JUMPI PUSH2 0x72D PUSH2 0x11C7 JUMP JUMPDEST JUMPDEST PUSH1 0x20 MUL ADD DUP2 DUP2 MSTORE POP POP PUSH1 0x0 PUSH1 0x60 DUP4 PUSH1 0xC0 DUP5 PUSH1 0x6 PUSH2 0x7D0 GAS SUB STATICCALL SWAP1 POP DUP1 PUSH1 0x0 DUP2 EQ PUSH2 0x757 JUMPI PUSH2 0x759 JUMP JUMPDEST INVALID JUMPDEST POP DUP1 PUSH2 0x764 JUMPI PUSH1 0x0 DUP1 REVERT JUMPDEST POP POP SWAP3 SWAP2 POP POP JUMP JUMPDEST PUSH2 0x774 PUSH2 0xD80 JUMP JUMPDEST PUSH1 0x0 PUSH32 0x30644E72E131A029B85045B68181585D97816A916871CA8D3C208C16D87CFD47 SWAP1 POP PUSH1 0x0 DUP4 PUSH1 0x0 ADD MLOAD EQ DUP1 ISZERO PUSH2 0x7B1 JUMPI POP PUSH1 0x0 DUP4 PUSH1 0x20 ADD MLOAD EQ JUMPDEST ISZERO PUSH2 0x7D5 JUMPI PUSH1 0x40 MLOAD DUP1 PUSH1 0x40 ADD PUSH1 0x40 MSTORE DUP1 PUSH1 0x0 DUP2 MSTORE PUSH1 0x20 ADD PUSH1 0x0 DUP2 MSTORE POP SWAP2 POP POP PUSH2 0x80C JUMP JUMPDEST PUSH1 0x40 MLOAD DUP1 PUSH1 0x40 ADD PUSH1 0x40 MSTORE DUP1 DUP5 PUSH1 0x0 ADD MLOAD DUP2 MSTORE PUSH1 0x20 ADD DUP3 DUP6 PUSH1 0x20 ADD MLOAD PUSH2 0x7FA SWAP2 SWAP1 PUSH2 0x126E JUMP JUMPDEST DUP4 PUSH2 0x805 SWAP2 SWAP1 PUSH2 0x129F JUMP JUMPDEST DUP2 MSTORE POP SWAP2 POP POP JUMPDEST SWAP2 SWAP1 POP JUMP JUMPDEST PUSH1 0x0 DUP1 PUSH1 0x4 PUSH8 0xFFFFFFFFFFFFFFFF DUP2 GT ISZERO PUSH2 0x82F JUMPI PUSH2 0x82E PUSH2 0xE6D JUMP JUMPDEST JUMPDEST PUSH1 0x40 MLOAD SWAP1 DUP1 DUP3 MSTORE DUP1 PUSH1 0x20 MUL PUSH1 0x20 ADD DUP3 ADD PUSH1 0x40 MSTORE DUP1 ISZERO PUSH2 0x868 JUMPI DUP2 PUSH1 0x20 ADD JUMPDEST PUSH2 0x855 PUSH2 0xD80 JUMP JUMPDEST DUP2 MSTORE PUSH1 0x20 ADD SWAP1 PUSH1 0x1 SWAP1 SUB SWAP1 DUP2 PUSH2 0x84D JUMPI SWAP1 POP JUMPDEST POP SWAP1 POP PUSH1 0x0 PUSH1 0x4 PUSH8 0xFFFFFFFFFFFFFFFF DUP2 GT ISZERO PUSH2 0x888 JUMPI PUSH2 0x887 PUSH2 0xE6D JUMP JUMPDEST JUMPDEST PUSH1 0x40 MLOAD SWAP1 DUP1 DUP3 MSTORE DUP1 PUSH1 0x20 MUL PUSH1 0x20 ADD DUP3 ADD PUSH1 0x40 MSTORE DUP1 ISZERO PUSH2 0x8C1 JUMPI DUP2 PUSH1 0x20 ADD JUMPDEST PUSH2 0x8AE PUSH2 0xDDE JUMP JUMPDEST DUP2 MSTORE PUSH1 0x20 ADD SWAP1 PUSH1 0x1 SWAP1 SUB SWAP1 DUP2 PUSH2 0x8A6 JUMPI SWAP1 POP JUMPDEST POP SWAP1 POP DUP11 DUP3 PUSH1 0x0 DUP2 MLOAD DUP2 LT PUSH2 0x8D9 JUMPI PUSH2 0x8D8 PUSH2 0x11C7 JUMP JUMPDEST JUMPDEST PUSH1 0x20 MUL PUSH1 0x20 ADD ADD DUP2 SWAP1 MSTORE POP DUP9 DUP3 PUSH1 0x1 DUP2 MLOAD DUP2 LT PUSH2 0x8F9 JUMPI PUSH2 0x8F8 PUSH2 0x11C7 JUMP JUMPDEST JUMPDEST PUSH1 0x20 MUL PUSH1 0x20 ADD ADD DUP2 SWAP1 MSTORE POP DUP7 DUP3 PUSH1 0x2 DUP2 MLOAD DUP2 LT PUSH2 0x919 JUMPI PUSH2 0x918 PUSH2 0x11C7 JUMP JUMPDEST JUMPDEST PUSH1 0x20 MUL PUSH1 0x20 ADD ADD DUP2 SWAP1 MSTORE POP DUP5 DUP3 PUSH1 0x3 DUP2 MLOAD DUP2 LT PUSH2 0x939 JUMPI PUSH2 0x938 PUSH2 0x11C7 JUMP JUMPDEST JUMPDEST PUSH1 0x20 MUL PUSH1 0x20 ADD ADD DUP2 SWAP1 MSTORE POP DUP10 DUP2 PUSH1 0x0 DUP2 MLOAD DUP2 LT PUSH2 0x959 JUMPI PUSH2 0x958 PUSH2 0x11C7 JUMP JUMPDEST JUMPDEST PUSH1 0x20 MUL PUSH1 0x20 ADD ADD DUP2 SWAP1 MSTORE POP DUP8 DUP2 PUSH1 0x1 DUP2 MLOAD DUP2 LT PUSH2 0x979 JUMPI PUSH2 0x978 PUSH2 0x11C7 JUMP JUMPDEST JUMPDEST PUSH1 0x20 MUL PUSH1 0x20 ADD ADD DUP2 SWAP1 MSTORE POP DUP6 DUP2 PUSH1 0x2 DUP2 MLOAD DUP2 LT PUSH2 0x999 JUMPI PUSH2 0x998 PUSH2 0x11C7 JUMP JUMPDEST JUMPDEST PUSH1 0x20 MUL PUSH1 0x20 ADD ADD DUP2 SWAP1 MSTORE POP DUP4 DUP2 PUSH1 0x3 DUP2 MLOAD DUP2 LT PUSH2 0x9B9 JUMPI PUSH2 0x9B8 PUSH2 0x11C7 JUMP JUMPDEST JUMPDEST PUSH1 0x20 MUL PUSH1 0x20 ADD ADD DUP2 SWAP1 MSTORE POP PUSH2 0x9CE DUP3 DUP3 PUSH2 0x9DE JUMP JUMPDEST SWAP3 POP POP POP SWAP9 SWAP8 POP POP POP POP POP POP POP POP JUMP JUMPDEST PUSH1 0x0 DUP2 MLOAD DUP4 MLOAD EQ PUSH2 0x9EE JUMPI PUSH1 0x0 DUP1 REVERT JUMPDEST PUSH1 0x0 DUP4 MLOAD SWAP1 POP PUSH1 0x0 PUSH1 0x6 DUP3 PUSH2 0xA03 SWAP2 SWAP1 PUSH2 0x12D3 JUMP JUMPDEST SWAP1 POP PUSH1 0x0 DUP2 PUSH8 0xFFFFFFFFFFFFFFFF DUP2 GT ISZERO PUSH2 0xA21 JUMPI PUSH2 0xA20 PUSH2 0xE6D JUMP JUMPDEST JUMPDEST PUSH1 0x40 MLOAD SWAP1 DUP1 DUP3 MSTORE DUP1 PUSH1 0x20 MUL PUSH1 0x20 ADD DUP3 ADD PUSH1 0x40 MSTORE DUP1 ISZERO PUSH2 0xA4F JUMPI DUP2 PUSH1 0x20 ADD PUSH1 0x20 DUP3 MUL DUP1 CALLDATASIZE DUP4 CALLDATACOPY DUP1 DUP3 ADD SWAP2 POP POP SWAP1 POP JUMPDEST POP SWAP1 POP PUSH1 0x0 JUMPDEST DUP4 DUP2 LT ISZERO PUSH2 0xCD4 JUMPI DUP7 DUP2 DUP2 MLOAD DUP2 LT PUSH2 0xA70 JUMPI PUSH2 0xA6F PUSH2 0x11C7 JUMP JUMPDEST JUMPDEST PUSH1 0x20 MUL PUSH1 0x20 ADD ADD MLOAD PUSH1 0x0 ADD MLOAD DUP3 PUSH1 0x0 PUSH1 0x6 DUP5 PUSH2 0xA8C SWAP2 SWAP1 PUSH2 0x12D3 JUMP JUMPDEST PUSH2 0xA96 SWAP2 SWAP1 PUSH2 0x1171 JUMP JUMPDEST DUP2 MLOAD DUP2 LT PUSH2 0xAA7 JUMPI PUSH2 0xAA6 PUSH2 0x11C7 JUMP JUMPDEST JUMPDEST PUSH1 0x20 MUL PUSH1 0x20 ADD ADD DUP2 DUP2 MSTORE POP POP DUP7 DUP2 DUP2 MLOAD DUP2 LT PUSH2 0xAC6 JUMPI PUSH2 0xAC5 PUSH2 0x11C7 JUMP JUMPDEST JUMPDEST PUSH1 0x20 MUL PUSH1 0x20 ADD ADD MLOAD PUSH1 0x20 ADD MLOAD DUP3 PUSH1 0x1 PUSH1 0x6 DUP5 PUSH2 0xAE2 SWAP2 SWAP1 PUSH2 0x12D3 JUMP JUMPDEST PUSH2 0xAEC SWAP2 SWAP1 PUSH2 0x1171 JUMP JUMPDEST DUP2 MLOAD DUP2 LT PUSH2 0xAFD JUMPI PUSH2 0xAFC PUSH2 0x11C7 JUMP JUMPDEST JUMPDEST PUSH1 0x20 MUL PUSH1 0x20 ADD ADD DUP2 DUP2 MSTORE POP POP DUP6 DUP2 DUP2 MLOAD DUP2 LT PUSH2 0xB1C JUMPI PUSH2 0xB1B PUSH2 0x11C7 JUMP JUMPDEST JUMPDEST PUSH1 0x20 MUL PUSH1 0x20 ADD ADD MLOAD PUSH1 0x0 ADD MLOAD PUSH1 0x1 PUSH1 0x2 DUP2 LT PUSH2 0xB3B JUMPI PUSH2 0xB3A PUSH2 0x11C7 JUMP JUMPDEST JUMPDEST PUSH1 0x20 MUL ADD MLOAD DUP3 PUSH1 0x2 PUSH1 0x6 DUP5 PUSH2 0xB50 SWAP2 SWAP1 PUSH2 0x12D3 JUMP JUMPDEST PUSH2 0xB5A SWAP2 SWAP1 PUSH2 0x1171 JUMP JUMPDEST DUP2 MLOAD DUP2 LT PUSH2 0xB6B JUMPI PUSH2 0xB6A PUSH2 0x11C7 JUMP JUMPDEST JUMPDEST PUSH1 0x20 MUL PUSH1 0x20 ADD ADD DUP2 DUP2 MSTORE POP POP DUP6 DUP2 DUP2 MLOAD DUP2 LT PUSH2 0xB8A JUMPI PUSH2 0xB89 PUSH2 0x11C7 JUMP JUMPDEST JUMPDEST PUSH1 0x20 MUL PUSH1 0x20 ADD ADD MLOAD PUSH1 0x0 ADD MLOAD PUSH1 0x0 PUSH1 0x2 DUP2 LT PUSH2 0xBA9 JUMPI PUSH2 0xBA8 PUSH2 0x11C7 JUMP JUMPDEST JUMPDEST PUSH1 0x20 MUL ADD MLOAD DUP3 PUSH1 0x3 PUSH1 0x6 DUP5 PUSH2 0xBBE SWAP2 SWAP1 PUSH2 0x12D3 JUMP JUMPDEST PUSH2 0xBC8 SWAP2 SWAP1 PUSH2 0x1171 JUMP JUMPDEST DUP2 MLOAD DUP2 LT PUSH2 0xBD9 JUMPI PUSH2 0xBD8 PUSH2 0x11C7 JUMP JUMPDEST JUMPDEST PUSH1 0x20 MUL PUSH1 0x20 ADD ADD DUP2 DUP2 MSTORE POP POP DUP6 DUP2 DUP2 MLOAD DUP2 LT PUSH2 0xBF8 JUMPI PUSH2 0xBF7 PUSH2 0x11C7 JUMP JUMPDEST JUMPDEST PUSH1 0x20 MUL PUSH1 0x20 ADD ADD MLOAD PUSH1 0x20 ADD MLOAD PUSH1 0x1 PUSH1 0x2 DUP2 LT PUSH2 0xC17 JUMPI PUSH2 0xC16 PUSH2 0x11C7 JUMP JUMPDEST JUMPDEST PUSH1 0x20 MUL ADD MLOAD DUP3 PUSH1 0x4 PUSH1 0x6 DUP5 PUSH2 0xC2C SWAP2 SWAP1 PUSH2 0x12D3 JUMP JUMPDEST PUSH2 0xC36 SWAP2 SWAP1 PUSH2 0x1171 JUMP JUMPDEST DUP2 MLOAD DUP2 LT PUSH2 0xC47 JUMPI PUSH2 0xC46 PUSH2 0x11C7 JUMP JUMPDEST JUMPDEST PUSH1 0x20 MUL PUSH1 0x20 ADD ADD DUP2 DUP2 MSTORE POP POP DUP6 DUP2 DUP2 MLOAD DUP2 LT PUSH2 0xC66 JUMPI PUSH2 0xC65 PUSH2 0x11C7 JUMP JUMPDEST JUMPDEST PUSH1 0x20 MUL PUSH1 0x20 ADD ADD MLOAD PUSH1 0x20 ADD MLOAD PUSH1 0x0 PUSH1 0x2 DUP2 LT PUSH2 0xC85 JUMPI PUSH2 0xC84 PUSH2 0x11C7 JUMP JUMPDEST JUMPDEST PUSH1 0x20 MUL ADD MLOAD DUP3 PUSH1 0x5 PUSH1 0x6 DUP5 PUSH2 0xC9A SWAP2 SWAP1 PUSH2 0x12D3 JUMP JUMPDEST PUSH2 0xCA4 SWAP2 SWAP1 PUSH2 0x1171 JUMP JUMPDEST DUP2 MLOAD DUP2 LT PUSH2 0xCB5 JUMPI PUSH2 0xCB4 PUSH2 0x11C7 JUMP JUMPDEST JUMPDEST PUSH1 0x20 MUL PUSH1 0x20 ADD ADD DUP2 DUP2 MSTORE POP POP DUP1 DUP1 PUSH2 0xCCC SWAP1 PUSH2 0x11F6 JUMP JUMPDEST SWAP2 POP POP PUSH2 0xA55 JUMP JUMPDEST POP PUSH2 0xCDD PUSH2 0xE04 JUMP JUMPDEST PUSH1 0x0 PUSH1 0x20 DUP3 PUSH1 0x20 DUP7 MUL PUSH1 0x20 DUP7 ADD PUSH1 0x8 PUSH2 0x7D0 GAS SUB STATICCALL SWAP1 POP DUP1 PUSH1 0x0 DUP2 EQ PUSH2 0xD02 JUMPI PUSH2 0xD04 JUMP JUMPDEST INVALID JUMPDEST POP DUP1 PUSH2 0xD0F JUMPI PUSH1 0x0 DUP1 REVERT JUMPDEST PUSH1 0x0 DUP3 PUSH1 0x0 PUSH1 0x1 DUP2 LT PUSH2 0xD25 JUMPI PUSH2 0xD24 PUSH2 0x11C7 JUMP JUMPDEST JUMPDEST PUSH1 0x20 MUL ADD MLOAD EQ ISZERO SWAP6 POP POP POP POP POP POP SWAP3 SWAP2 POP POP JUMP JUMPDEST PUSH1 0x40 MLOAD DUP1 PUSH1 0xA0 ADD PUSH1 0x40 MSTORE DUP1 PUSH2 0xD4C PUSH2 0xD80 JUMP JUMPDEST DUP2 MSTORE PUSH1 0x20 ADD PUSH2 0xD59 PUSH2 0xDDE JUMP JUMPDEST DUP2 MSTORE PUSH1 0x20 ADD PUSH2 0xD66 PUSH2 0xDDE JUMP JUMPDEST DUP2 MSTORE PUSH1 0x20 ADD PUSH2 0xD73 PUSH2 0xDDE JUMP JUMPDEST DUP2 MSTORE PUSH1 0x20 ADD PUSH1 0x60 DUP2 MSTORE POP SWAP1 JUMP JUMPDEST PUSH1 0x40 MLOAD DUP1 PUSH1 0x40 ADD PUSH1 0x40 MSTORE DUP1 PUSH1 0x0 DUP2 MSTORE PUSH1 0x20 ADD PUSH1 0x0 DUP2 MSTORE POP SWAP1 JUMP JUMPDEST PUSH1 0x40 MLOAD DUP1 PUSH1 0x60 ADD PUSH1 0x40 MSTORE DUP1 PUSH1 0x3 SWAP1 PUSH1 0x20 DUP3 MUL DUP1 CALLDATASIZE DUP4 CALLDATACOPY DUP1 DUP3 ADD SWAP2 POP POP SWAP1 POP POP SWAP1 JUMP JUMPDEST PUSH1 0x40 MLOAD DUP1 PUSH1 0x80 ADD PUSH1 0x40 MSTORE DUP1 PUSH1 0x4 SWAP1 PUSH1 0x20 DUP3 MUL DUP1 CALLDATASIZE DUP4 CALLDATACOPY DUP1 DUP3 ADD SWAP2 POP POP SWAP1 POP POP SWAP1 JUMP JUMPDEST PUSH1 0x40 MLOAD DUP1 PUSH1 0x40 ADD PUSH1 0x40 MSTORE DUP1 PUSH2 0xDF1 PUSH2 0xE26 JUMP JUMPDEST DUP2 MSTORE PUSH1 0x20 ADD PUSH2 0xDFE PUSH2 0xE26 JUMP JUMPDEST DUP2 MSTORE POP SWAP1 JUMP JUMPDEST PUSH1 0x40 MLOAD DUP1 PUSH1 0x20 ADD PUSH1 0x40 MSTORE DUP1 PUSH1 0x1 SWAP1 PUSH1 0x20 DUP3 MUL DUP1 CALLDATASIZE DUP4 CALLDATACOPY DUP1 DUP3 ADD SWAP2 POP POP SWAP1 POP POP SWAP1 JUMP JUMPDEST PUSH1 0x40 MLOAD DUP1 PUSH1 0x40 ADD PUSH1 0x40 MSTORE DUP1 PUSH1 0x2 SWAP1 PUSH1 0x20 DUP3 MUL DUP1 CALLDATASIZE DUP4 CALLDATACOPY DUP1 DUP3 ADD SWAP2 POP POP SWAP1 POP POP SWAP1 JUMP JUMPDEST PUSH1 0x0 PUSH1 0x40 MLOAD SWAP1 POP SWAP1 JUMP JUMPDEST PUSH1 0x0 DUP1 REVERT JUMPDEST PUSH1 0x0 DUP1 REVERT JUMPDEST PUSH1 0x0 PUSH1 0x1F NOT PUSH1 0x1F DUP4 ADD AND SWAP1 POP SWAP2 SWAP1 POP JUMP JUMPDEST PUSH32 0x4E487B7100000000000000000000000000000000000000000000000000000000 PUSH1 0x0 MSTORE PUSH1 0x41 PUSH1 0x4 MSTORE PUSH1 0x24 PUSH1 0x0 REVERT JUMPDEST PUSH2 0xEA5 DUP3 PUSH2 0xE5C JUMP JUMPDEST DUP2 ADD DUP2 DUP2 LT PUSH8 0xFFFFFFFFFFFFFFFF DUP3 GT OR ISZERO PUSH2 0xEC4 JUMPI PUSH2 0xEC3 PUSH2 0xE6D JUMP JUMPDEST JUMPDEST DUP1 PUSH1 0x40 MSTORE POP POP POP JUMP JUMPDEST PUSH1 0x0 PUSH2 0xED7 PUSH2 0xE48 JUMP JUMPDEST SWAP1 POP PUSH2 0xEE3 DUP3 DUP3 PUSH2 0xE9C JUMP JUMPDEST SWAP2 SWAP1 POP JUMP JUMPDEST PUSH1 0x0 DUP2 SWAP1 POP SWAP2 SWAP1 POP JUMP JUMPDEST PUSH2 0xEFB DUP2 PUSH2 0xEE8 JUMP JUMPDEST DUP2 EQ PUSH2 0xF06 JUMPI PUSH1 0x0 DUP1 REVERT JUMPDEST POP JUMP JUMPDEST PUSH1 0x0 DUP2 CALLDATALOAD SWAP1 POP PUSH2 0xF18 DUP2 PUSH2 0xEF2 JUMP JUMPDEST SWAP3 SWAP2 POP POP JUMP JUMPDEST PUSH1 0x0 PUSH1 0x40 DUP3 DUP5 SUB SLT ISZERO PUSH2 0xF34 JUMPI PUSH2 0xF33 PUSH2 0xE57 JUMP JUMPDEST JUMPDEST PUSH2 0xF3E PUSH1 0x40 PUSH2 0xECD JUMP JUMPDEST SWAP1 POP PUSH1 0x0 PUSH2 0xF4E DUP5 DUP3 DUP6 ADD PUSH2 0xF09 JUMP JUMPDEST PUSH1 0x0 DUP4 ADD MSTORE POP PUSH1 0x20 PUSH2 0xF62 DUP5 DUP3 DUP6 ADD PUSH2 0xF09 JUMP JUMPDEST PUSH1 0x20 DUP4 ADD MSTORE POP SWAP3 SWAP2 POP POP JUMP JUMPDEST PUSH1 0x0 DUP1 REVERT JUMPDEST PUSH1 0x0 PUSH8 0xFFFFFFFFFFFFFFFF DUP3 GT ISZERO PUSH2 0xF8E JUMPI PUSH2 0xF8D PUSH2 0xE6D JUMP JUMPDEST JUMPDEST PUSH1 0x20 DUP3 MUL SWAP1 POP SWAP2 SWAP1 POP JUMP JUMPDEST PUSH1 0x0 DUP1 REVERT JUMPDEST PUSH1 0x0 PUSH2 0xFB1 PUSH2 0xFAC DUP5 PUSH2 0xF73 JUMP JUMPDEST PUSH2 0xECD JUMP JUMPDEST SWAP1 POP DUP1 PUSH1 0x20 DUP5 MUL DUP4 ADD DUP6 DUP2 GT ISZERO PUSH2 0xFCB JUMPI PUSH2 0xFCA PUSH2 0xF99 JUMP JUMPDEST JUMPDEST DUP4 JUMPDEST DUP2 DUP2 LT ISZERO PUSH2 0xFF4 JUMPI DUP1 PUSH2 0xFE0 DUP9 DUP3 PUSH2 0xF09 JUMP JUMPDEST DUP5 MSTORE PUSH1 0x20 DUP5 ADD SWAP4 POP POP PUSH1 0x20 DUP2 ADD SWAP1 POP PUSH2 0xFCD JUMP JUMPDEST POP POP POP SWAP4 SWAP3 POP POP POP JUMP JUMPDEST PUSH1 0x0 DUP3 PUSH1 0x1F DUP4 ADD SLT PUSH2 0x1013 JUMPI PUSH2 0x1012 PUSH2 0xF6E JUMP JUMPDEST JUMPDEST PUSH1 0x2 PUSH2 0x1020 DUP5 DUP3 DUP6 PUSH2 0xF9E JUMP JUMPDEST SWAP2 POP POP SWAP3 SWAP2 POP POP JUMP JUMPDEST PUSH1 0x0 PUSH1 0x80 DUP3 DUP5 SUB SLT ISZERO PUSH2 0x103F JUMPI PUSH2 0x103E PUSH2 0xE57 JUMP JUMPDEST JUMPDEST PUSH2 0x1049 PUSH1 0x40 PUSH2 0xECD JUMP JUMPDEST SWAP1 POP PUSH1 0x0 PUSH2 0x1059 DUP5 DUP3 DUP6 ADD PUSH2 0xFFE JUMP JUMPDEST PUSH1 0x0 DUP4 ADD MSTORE POP PUSH1 0x40 PUSH2 0x106D DUP5 DUP3 DUP6 ADD PUSH2 0xFFE JUMP JUMPDEST PUSH1 0x20 DUP4 ADD MSTORE POP SWAP3 SWAP2 POP POP JUMP JUMPDEST PUSH1 0x0 PUSH2 0x100 DUP3 DUP5 SUB SLT ISZERO PUSH2 0x1090 JUMPI PUSH2 0x108F PUSH2 0xE57 JUMP JUMPDEST JUMPDEST PUSH2 0x109A PUSH1 0x60 PUSH2 0xECD JUMP JUMPDEST SWAP1 POP PUSH1 0x0 PUSH2 0x10AA DUP5 DUP3 DUP6 ADD PUSH2 0xF1E JUMP JUMPDEST PUSH1 0x0 DUP4 ADD MSTORE POP PUSH1 0x40 PUSH2 0x10BE DUP5 DUP3 DUP6 ADD PUSH2 0x1029 JUMP JUMPDEST PUSH1 0x20 DUP4 ADD MSTORE POP PUSH1 0xC0 PUSH2 0x10D2 DUP5 DUP3 DUP6 ADD PUSH2 0xF1E JUMP JUMPDEST PUSH1 0x40 DUP4 ADD MSTORE POP SWAP3 SWAP2 POP POP JUMP JUMPDEST PUSH1 0x0 PUSH2 0x100 DUP3 DUP5 SUB SLT ISZERO PUSH2 0x10F5 JUMPI PUSH2 0x10F4 PUSH2 0xE52 JUMP JUMPDEST JUMPDEST PUSH1 0x0 PUSH2 0x1103 DUP5 DUP3 DUP6 ADD PUSH2 0x1079 JUMP JUMPDEST SWAP2 POP POP SWAP3 SWAP2 POP POP JUMP JUMPDEST PUSH1 0x0 DUP2 ISZERO ISZERO SWAP1 POP SWAP2 SWAP1 POP JUMP JUMPDEST PUSH2 0x1121 DUP2 PUSH2 0x110C JUMP JUMPDEST DUP3 MSTORE POP POP JUMP JUMPDEST PUSH1 0x0 PUSH1 0x20 DUP3 ADD SWAP1 POP PUSH2 0x113C PUSH1 0x0 DUP4 ADD DUP5 PUSH2 0x1118 JUMP JUMPDEST SWAP3 SWAP2 POP POP JUMP JUMPDEST PUSH32 0x4E487B7100000000000000000000000000000000000000000000000000000000 PUSH1 0x0 MSTORE PUSH1 0x11 PUSH1 0x4 MSTORE PUSH1 0x24 PUSH1 0x0 REVERT JUMPDEST PUSH1 0x0 PUSH2 0x117C DUP3 PUSH2 0xEE8 JUMP JUMPDEST SWAP2 POP PUSH2 0x1187 DUP4 PUSH2 0xEE8 JUMP JUMPDEST SWAP3 POP DUP3 PUSH32 0xFFFFFFFFFFFFFFFFFFFFFFFFFFFFFFFFFFFFFFFFFFFFFFFFFFFFFFFFFFFFFFFF SUB DUP3 GT ISZERO PUSH2 0x11BC JUMPI PUSH2 0x11BB PUSH2 0x1142 JUMP JUMPDEST JUMPDEST DUP3 DUP3 ADD SWAP1 POP SWAP3 SWAP2 POP POP JUMP JUMPDEST PUSH32 0x4E487B7100000000000000000000000000000000000000000000000000000000 PUSH1 0x0 MSTORE PUSH1 0x32 PUSH1 0x4 MSTORE PUSH1 0x24 PUSH1 0x0 REVERT JUMPDEST PUSH1 0x0 PUSH2 0x1201 DUP3 PUSH2 0xEE8 JUMP JUMPDEST SWAP2 POP PUSH32 0xFFFFFFFFFFFFFFFFFFFFFFFFFFFFFFFFFFFFFFFFFFFFFFFFFFFFFFFFFFFFFFFF DUP3 EQ ISZERO PUSH2 0x1234 JUMPI PUSH2 0x1233 PUSH2 0x1142 JUMP JUMPDEST JUMPDEST PUSH1 0x1 DUP3 ADD SWAP1 POP SWAP2 SWAP1 POP JUMP JUMPDEST PUSH32 0x4E487B7100000000000000000000000000000000000000000000000000000000 PUSH1 0x0 MSTORE PUSH1 0x12 PUSH1 0x4 MSTORE PUSH1 0x24 PUSH1 0x0 REVERT JUMPDEST PUSH1 0x0 PUSH2 0x1279 DUP3 PUSH2 0xEE8 JUMP JUMPDEST SWAP2 POP PUSH2 0x1284 DUP4 PUSH2 0xEE8 JUMP JUMPDEST SWAP3 POP DUP3 PUSH2 0x1294 JUMPI PUSH2 0x1293 PUSH2 0x123F JUMP JUMPDEST JUMPDEST DUP3 DUP3 MOD SWAP1 POP SWAP3 SWAP2 POP POP JUMP JUMPDEST PUSH1 0x0 PUSH2 0x12AA DUP3 PUSH2 0xEE8 JUMP JUMPDEST SWAP2 POP PUSH2 0x12B5 DUP4 PUSH2 0xEE8 JUMP JUMPDEST SWAP3 POP DUP3 DUP3 LT ISZERO PUSH2 0x12C8 JUMPI PUSH2 0x12C7 PUSH2 0x1142 JUMP JUMPDEST JUMPDEST DUP3 DUP3 SUB SWAP1 POP SWAP3 SWAP2 POP POP JUMP JUMPDEST PUSH1 0x0 PUSH2 0x12DE DUP3 PUSH2 0xEE8 JUMP JUMPDEST SWAP2 POP PUSH2 0x12E9 DUP4 PUSH2 0xEE8 JUMP JUMPDEST SWAP3 POP DUP2 PUSH32 0xFFFFFFFFFFFFFFFFFFFFFFFFFFFFFFFFFFFFFFFFFFFFFFFFFFFFFFFFFFFFFFFF DIV DUP4 GT DUP3 ISZERO ISZERO AND ISZERO PUSH2 0x1322 JUMPI PUSH2 0x1321 PUSH2 0x1142 JUMP JUMPDEST JUMPDEST DUP3 DUP3 MUL SWAP1 POP SWAP3 SWAP2 POP POP JUMP INVALID LOG2 PUSH5 0x6970667358 0x22 SLT KECCAK256 0xCC CALLER PUSH28 0xDE69781494AD4DE969E941A8275966D980B49D7F23E31E79EC7B7B8A LT PUSH5 0x736F6C6343 STOP ADDMOD MULMOD STOP CALLER "
        },
        "methodIdentifiers": {
          "verifyTx(((uint256,uint256),(uint256[2],uint256[2]),(uint256,uint256)))": "f6af0311"
        }
      }
    }
  }
}