{
  "_format": "hh-sol-artifact-1",
  "contractName": "IdentityFactory",
  "sourceName": "contracts/Pool.sol",
  "abi": [
    {
      "inputs": [
        {
          "components": [
            {
              "components": [
                {
                  "internalType": "uint256",
                  "name": "X",
                  "type": "uint256"
                },
                {
                  "internalType": "uint256",
                  "name": "Y",
                  "type": "uint256"
                }
              ],
              "internalType": "struct Pairing.G1Point",
              "name": "a",
              "type": "tuple"
            },
            {
              "components": [
                {
                  "internalType": "uint256[2]",
                  "name": "X",
                  "type": "uint256[2]"
                },
                {
                  "internalType": "uint256[2]",
                  "name": "Y",
                  "type": "uint256[2]"
                }
              ],
              "internalType": "struct Pairing.G2Point",
              "name": "b",
              "type": "tuple"
            },
            {
              "components": [
                {
                  "internalType": "uint256",
                  "name": "X",
                  "type": "uint256"
                },
                {
                  "internalType": "uint256",
                  "name": "Y",
                  "type": "uint256"
                }
              ],
              "internalType": "struct Pairing.G1Point",
              "name": "c",
              "type": "tuple"
            }
          ],
          "internalType": "struct Verifier.Proof",
          "name": "proof",
          "type": "tuple"
        },
        {
          "internalType": "string",
          "name": "cid",
          "type": "string"
        }
      ],
      "name": "broadcastData",
      "outputs": [],
      "stateMutability": "nonpayable",
      "type": "function"
    },
    {
      "inputs": [
        {
          "internalType": "uint256",
          "name": "",
          "type": "uint256"
        }
      ],
      "name": "ipfsCIDs",
      "outputs": [
        {
          "internalType": "string",
          "name": "",
          "type": "string"
        }
      ],
      "stateMutability": "view",
      "type": "function"
    },
    {
      "inputs": [],
      "name": "uploadCount",
      "outputs": [
        {
          "internalType": "uint256",
          "name": "",
          "type": "uint256"
        }
      ],
      "stateMutability": "view",
      "type": "function"
    },
    {
      "inputs": [
        {
          "components": [
            {
              "components": [
                {
                  "internalType": "uint256",
                  "name": "X",
                  "type": "uint256"
                },
                {
                  "internalType": "uint256",
                  "name": "Y",
                  "type": "uint256"
                }
              ],
              "internalType": "struct Pairing.G1Point",
              "name": "a",
              "type": "tuple"
            },
            {
              "components": [
                {
                  "internalType": "uint256[2]",
                  "name": "X",
                  "type": "uint256[2]"
                },
                {
                  "internalType": "uint256[2]",
                  "name": "Y",
                  "type": "uint256[2]"
                }
              ],
              "internalType": "struct Pairing.G2Point",
              "name": "b",
              "type": "tuple"
            },
            {
              "components": [
                {
                  "internalType": "uint256",
                  "name": "X",
                  "type": "uint256"
                },
                {
                  "internalType": "uint256",
                  "name": "Y",
                  "type": "uint256"
                }
              ],
              "internalType": "struct Pairing.G1Point",
              "name": "c",
              "type": "tuple"
            }
          ],
          "internalType": "struct Verifier.Proof",
          "name": "proof",
          "type": "tuple"
        }
      ],
      "name": "verifyTx",
      "outputs": [
        {
          "internalType": "bool",
          "name": "r",
          "type": "bool"
        }
      ],
      "stateMutability": "view",
      "type": "function"
    }
  ],
  "bytecode": "0x60806040526000805534801561001457600080fd5b50611b54806100246000396000f3fe608060405234801561001057600080fd5b506004361061004c5760003560e01c806342b673191461005157806372ef494a1461006d578063f6af03111461009d578063fae71b64146100cd575b600080fd5b61006b600480360381019061006691906114f6565b6100eb565b005b61008760048036038101906100829190611554565b610269565b6040516100949190611609565b60405180910390f35b6100b760048036038101906100b2919061162b565b610315565b6040516100c49190611674565b60405180910390f35b6100d561038b565b6040516100e2919061169e565b60405180910390f35b600115156100f883610315565b1515141561022a576000826000015183602001518460400151604051602001610123939291906117c2565b604051602081830303815290604052805190602001209050600115156002600083815260200190815260200160002060009054906101000a900460ff16151514156101a3576040517f08c379a000000000000000000000000000000000000000000000000000000000815260040161019a90611846565b60405180910390fd5b60016002600083815260200190815260200160002060006101000a81548160ff02191690831515021790555060016000808282546101e19190611895565b92505081905550600182908060018154018082558091505060019003906000526020600020016000909190919091509080519060200190610223929190610ff4565b5050610265565b6040517f08c379a000000000000000000000000000000000000000000000000000000000815260040161025c90611937565b60405180910390fd5b5050565b6001818154811061027957600080fd5b90600052602060002001600091509050805461029490611986565b80601f01602080910402602001604051908101604052809291908181526020018280546102c090611986565b801561030d5780601f106102e25761010080835404028352916020019161030d565b820191906000526020600020905b8154815290600101906020018083116102f057829003601f168201915b505050505081565b600080600067ffffffffffffffff811115610333576103326111d0565b5b6040519080825280602002602001820160405280156103615781602001602082028036833780820191505090505b50905060006103708285610391565b1415610380576001915050610386565b60009150505b919050565b60005481565b6000807f30644e72e131a029b85045b68181585d2833e84879b9709143e1f593f0000001905060006103c1610528565b9050806080015151600186516103d79190611895565b146103e157600080fd5b60006040518060400160405280600081526020016000815250905060005b865181101561049a578387828151811061041c5761041b6119b8565b5b60200260200101511061042e57600080fd5b6104858261048085608001516001856104479190611895565b81518110610458576104576119b8565b5b60200260200101518a8581518110610473576104726119b8565b5b60200260200101516108b3565b61095a565b91508080610492906119e7565b9150506103ff565b506104c48183608001516000815181106104b7576104b66119b8565b5b602002602001015161095a565b905061050a856000015186602001516104dc84610a27565b85604001516104ee8a60400151610a27565b87606001516105008960000151610a27565b8960200151610acc565b61051a5760019350505050610522565b600093505050505b92915050565b61053061107a565b60405180604001604052807f18520e711c2174112a711616cc9174aea2d6b6a66818ae453e79157d128e761681526020017f27dbe4a296d5f8c4e5ceab3bf2cbe9af1f9c223814acd3a2506d16db8f0136208152508160000181905250604051806040016040528060405180604001604052807f08604c7de1122c2be83ec294dcd7d8af74b1a0beb4ea45a69d35b9d792aa676281526020017e32683b38b707e251c3ab75690247a5aaca4872a62d9ec3e2fb4645333cf2a1815250815260200160405180604001604052807f231a7508286ef6cddd264a9ddef1a24c0a590144f5589810c5e489d966b21b6b81526020017f0981b141a13c9829a84d4f7c7c8724779f880cfc46d4e99215ea5c410de5970e8152508152508160200181905250604051806040016040528060405180604001604052807f2d6a1f06329737fc5f094d929a4459446d8d962eda3662b04a439262171a167e81526020017f03c01abb60d4451cdf236e19b5459d74e4f123955a6068fc41621e6ca4d2b111815250815260200160405180604001604052807f298aceb47ebc56cf25374384d5740b0e5aba96081caad6712f3c7aa4a2cf30be81526020017f1cbe2d552c3eef5da11295bf3cca781d8627c2c79785b462754091e50ee55e238152508152508160400181905250604051806040016040528060405180604001604052807f146dcb1e010cc07c9096d4a0e469bcd40e31d10f4f102657971b39eee59d841c81526020017f04b4731aad2742d847b7504c2603b6df534eefa5f31522be2d925bd4e1838ea2815250815260200160405180604001604052807f19dc26629ab006fb6103ae7520056fec1a520be25865a5edd8e1515c1a2a25e781526020017f2db4096b08e7882177c4d1ad8ff1f10a4f7c7dbcd0998b85f31a8e85ad49cdf98152508152508160600181905250600167ffffffffffffffff8111156107f6576107f56111d0565b5b60405190808252806020026020018201604052801561082f57816020015b61081c6110c1565b8152602001906001900390816108145790505b50816080018190525060405180604001604052807f129a47efd005e8a7c5d6c1c39bfac6389b40091137e8f0d7de268d74c9aa82ca81526020017f2bbee24f90c3edd0356940b51f1510d5f70e0c7b6e8f02c3cc4160f37993d34e81525081608001516000815181106108a5576108a46119b8565b5b602002602001018190525090565b6108bb6110c1565b6108c36110db565b8360000151816000600381106108dc576108db6119b8565b5b6020020181815250508360200151816001600381106108fe576108fd6119b8565b5b602002018181525050828160026003811061091c5761091b6119b8565b5b602002018181525050600060608360808460076107d05a03fa9050806000811461094557610947565bfe5b508061095257600080fd5b505092915050565b6109626110c1565b61096a6110fd565b836000015181600060048110610983576109826119b8565b5b6020020181815250508360200151816001600481106109a5576109a46119b8565b5b6020020181815250508260000151816002600481106109c7576109c66119b8565b5b6020020181815250508260200151816003600481106109e9576109e86119b8565b5b602002018181525050600060608360c08460066107d05a03fa90508060008114610a1257610a14565bfe5b5080610a1f57600080fd5b505092915050565b610a2f6110c1565b60007f30644e72e131a029b85045b68181585d97816a916871ca8d3c208c16d87cfd47905060008360000151148015610a6c575060008360200151145b15610a90576040518060400160405280600081526020016000815250915050610ac7565b604051806040016040528084600001518152602001828560200151610ab59190611a5f565b83610ac09190611a90565b8152509150505b919050565b600080600467ffffffffffffffff811115610aea57610ae96111d0565b5b604051908082528060200260200182016040528015610b2357816020015b610b106110c1565b815260200190600190039081610b085790505b5090506000600467ffffffffffffffff811115610b4357610b426111d0565b5b604051908082528060200260200182016040528015610b7c57816020015b610b6961111f565b815260200190600190039081610b615790505b5090508a82600081518110610b9457610b936119b8565b5b60200260200101819052508882600181518110610bb457610bb36119b8565b5b60200260200101819052508682600281518110610bd457610bd36119b8565b5b60200260200101819052508482600381518110610bf457610bf36119b8565b5b60200260200101819052508981600081518110610c1457610c136119b8565b5b60200260200101819052508781600181518110610c3457610c336119b8565b5b60200260200101819052508581600281518110610c5457610c536119b8565b5b60200260200101819052508381600381518110610c7457610c736119b8565b5b6020026020010181905250610c898282610c99565b9250505098975050505050505050565b60008151835114610ca957600080fd5b6000835190506000600682610cbe9190611ac4565b905060008167ffffffffffffffff811115610cdc57610cdb6111d0565b5b604051908082528060200260200182016040528015610d0a5781602001602082028036833780820191505090505b50905060005b83811015610f8f57868181518110610d2b57610d2a6119b8565b5b602002602001015160000151826000600684610d479190611ac4565b610d519190611895565b81518110610d6257610d616119b8565b5b602002602001018181525050868181518110610d8157610d806119b8565b5b602002602001015160200151826001600684610d9d9190611ac4565b610da79190611895565b81518110610db857610db76119b8565b5b602002602001018181525050858181518110610dd757610dd66119b8565b5b602002602001015160000151600160028110610df657610df56119b8565b5b6020020151826002600684610e0b9190611ac4565b610e159190611895565b81518110610e2657610e256119b8565b5b602002602001018181525050858181518110610e4557610e446119b8565b5b602002602001015160000151600060028110610e6457610e636119b8565b5b6020020151826003600684610e799190611ac4565b610e839190611895565b81518110610e9457610e936119b8565b5b602002602001018181525050858181518110610eb357610eb26119b8565b5b602002602001015160200151600160028110610ed257610ed16119b8565b5b6020020151826004600684610ee79190611ac4565b610ef19190611895565b81518110610f0257610f016119b8565b5b602002602001018181525050858181518110610f2157610f206119b8565b5b602002602001015160200151600060028110610f4057610f3f6119b8565b5b6020020151826005600684610f559190611ac4565b610f5f9190611895565b81518110610f7057610f6f6119b8565b5b6020026020010181815250508080610f87906119e7565b915050610d10565b50610f98611145565b6000602082602086026020860160086107d05a03fa90508060008114610fbd57610fbf565bfe5b5080610fca57600080fd5b600082600060018110610fe057610fdf6119b8565b5b602002015114159550505050505092915050565b82805461100090611986565b90600052602060002090601f0160209004810192826110225760008555611069565b82601f1061103b57805160ff1916838001178555611069565b82800160010185558215611069579182015b8281111561106857825182559160200191906001019061104d565b5b5090506110769190611167565b5090565b6040518060a0016040528061108d6110c1565b815260200161109a61111f565b81526020016110a761111f565b81526020016110b461111f565b8152602001606081525090565b604051806040016040528060008152602001600081525090565b6040518060600160405280600390602082028036833780820191505090505090565b6040518060800160405280600490602082028036833780820191505090505090565b6040518060400160405280611132611184565b815260200161113f611184565b81525090565b6040518060200160405280600190602082028036833780820191505090505090565b5b80821115611180576000816000905550600101611168565b5090565b6040518060400160405280600290602082028036833780820191505090505090565b6000604051905090565b600080fd5b600080fd5b600080fd5b6000601f19601f8301169050919050565b7f4e487b7100000000000000000000000000000000000000000000000000000000600052604160045260246000fd5b611208826111bf565b810181811067ffffffffffffffff82111715611227576112266111d0565b5b80604052505050565b600061123a6111a6565b905061124682826111ff565b919050565b6000819050919050565b61125e8161124b565b811461126957600080fd5b50565b60008135905061127b81611255565b92915050565b600060408284031215611297576112966111ba565b5b6112a16040611230565b905060006112b18482850161126c565b60008301525060206112c58482850161126c565b60208301525092915050565b600080fd5b600067ffffffffffffffff8211156112f1576112f06111d0565b5b602082029050919050565b600080fd5b600061131461130f846112d6565b611230565b9050806020840283018581111561132e5761132d6112fc565b5b835b818110156113575780611343888261126c565b845260208401935050602081019050611330565b5050509392505050565b600082601f830112611376576113756112d1565b5b6002611383848285611301565b91505092915050565b6000608082840312156113a2576113a16111ba565b5b6113ac6040611230565b905060006113bc84828501611361565b60008301525060406113d084828501611361565b60208301525092915050565b600061010082840312156113f3576113f26111ba565b5b6113fd6060611230565b9050600061140d84828501611281565b60008301525060406114218482850161138c565b60208301525060c061143584828501611281565b60408301525092915050565b600080fd5b600067ffffffffffffffff821115611461576114606111d0565b5b61146a826111bf565b9050602081019050919050565b82818337600083830152505050565b600061149961149484611446565b611230565b9050828152602081018484840111156114b5576114b4611441565b5b6114c0848285611477565b509392505050565b600082601f8301126114dd576114dc6112d1565b5b81356114ed848260208601611486565b91505092915050565b600080610120838503121561150e5761150d6111b0565b5b600061151c858286016113dc565b92505061010083013567ffffffffffffffff81111561153e5761153d6111b5565b5b61154a858286016114c8565b9150509250929050565b60006020828403121561156a576115696111b0565b5b60006115788482850161126c565b91505092915050565b600081519050919050565b600082825260208201905092915050565b60005b838110156115bb5780820151818401526020810190506115a0565b838111156115ca576000848401525b50505050565b60006115db82611581565b6115e5818561158c565b93506115f581856020860161159d565b6115fe816111bf565b840191505092915050565b6000602082019050818103600083015261162381846115d0565b905092915050565b60006101008284031215611642576116416111b0565b5b6000611650848285016113dc565b91505092915050565b60008115159050919050565b61166e81611659565b82525050565b60006020820190506116896000830184611665565b92915050565b6116988161124b565b82525050565b60006020820190506116b3600083018461168f565b92915050565b6116c28161124b565b82525050565b6040820160008201516116de60008501826116b9565b5060208201516116f160208501826116b9565b50505050565b600060029050919050565b600081905092915050565b6000819050919050565b600061172383836116b9565b60208301905092915050565b6000602082019050919050565b611745816116f7565b61174f8184611702565b925061175a8261170d565b8060005b8381101561178b5781516117728782611717565b965061177d8361172f565b92505060018101905061175e565b505050505050565b6080820160008201516117a9600085018261173c565b5060208201516117bc604085018261173c565b50505050565b6000610100820190506117d860008301866116c8565b6117e56040830185611793565b6117f260c08301846116c8565b949350505050565b7f50726f6f662068617320616c7265616479206265656e20757365640000000000600082015250565b6000611830601b8361158c565b915061183b826117fa565b602082019050919050565b6000602082019050818103600083015261185f81611823565b9050919050565b7f4e487b7100000000000000000000000000000000000000000000000000000000600052601160045260246000fd5b60006118a08261124b565b91506118ab8361124b565b9250827fffffffffffffffffffffffffffffffffffffffffffffffffffffffffffffffff038211156118e0576118df611866565b5b828201905092915050565b7f496e76616c69642070726f6f6600000000000000000000000000000000000000600082015250565b6000611921600d8361158c565b915061192c826118eb565b602082019050919050565b6000602082019050818103600083015261195081611914565b9050919050565b7f4e487b7100000000000000000000000000000000000000000000000000000000600052602260045260246000fd5b6000600282049050600182168061199e57607f821691505b602082108114156119b2576119b1611957565b5b50919050565b7f4e487b7100000000000000000000000000000000000000000000000000000000600052603260045260246000fd5b60006119f28261124b565b91507fffffffffffffffffffffffffffffffffffffffffffffffffffffffffffffffff821415611a2557611a24611866565b5b600182019050919050565b7f4e487b7100000000000000000000000000000000000000000000000000000000600052601260045260246000fd5b6000611a6a8261124b565b9150611a758361124b565b925082611a8557611a84611a30565b5b828206905092915050565b6000611a9b8261124b565b9150611aa68361124b565b925082821015611ab957611ab8611866565b5b828203905092915050565b6000611acf8261124b565b9150611ada8361124b565b9250817fffffffffffffffffffffffffffffffffffffffffffffffffffffffffffffffff0483118215151615611b1357611b12611866565b5b82820290509291505056fea2646970667358221220d60e9e77cff3c6701a2495a88d3d0dc32697d889fdb24f7d1c46b7960e3756c864736f6c63430008090033",
  "linkReferences": {},
  "deployedLinkReferences": {}
}