{
  "_format": "hh-sol-artifact-1",
  "contractName": "Verifier",
  "sourceName": "contracts/Verifier.sol",
  "abi": [
    {
      "inputs": [
        {
          "components": [
            {
              "components": [
                {
                  "internalType": "uint256",
                  "name": "X",
                  "type": "uint256"
                },
                {
                  "internalType": "uint256",
                  "name": "Y",
                  "type": "uint256"
                }
              ],
              "internalType": "struct Pairing.G1Point",
              "name": "a",
              "type": "tuple"
            },
            {
              "components": [
                {
                  "internalType": "uint256[2]",
                  "name": "X",
                  "type": "uint256[2]"
                },
                {
                  "internalType": "uint256[2]",
                  "name": "Y",
                  "type": "uint256[2]"
                }
              ],
              "internalType": "struct Pairing.G2Point",
              "name": "b",
              "type": "tuple"
            },
            {
              "components": [
                {
                  "internalType": "uint256",
                  "name": "X",
                  "type": "uint256"
                },
                {
                  "internalType": "uint256",
                  "name": "Y",
                  "type": "uint256"
                }
              ],
              "internalType": "struct Pairing.G1Point",
              "name": "c",
              "type": "tuple"
            }
          ],
          "internalType": "struct Verifier.Proof",
          "name": "proof",
          "type": "tuple"
        }
      ],
      "name": "verifyTx",
      "outputs": [
        {
          "internalType": "bool",
          "name": "r",
          "type": "bool"
        }
      ],
      "stateMutability": "view",
      "type": "function"
    }
  ],
  "bytecode": "0x608060405234801561001057600080fd5b50611363806100206000396000f3fe608060405234801561001057600080fd5b506004361061002b5760003560e01c8063f6af031114610030575b600080fd5b61004a600480360381019061004591906110de565b610060565b6040516100579190611127565b60405180910390f35b600080600067ffffffffffffffff81111561007e5761007d610e6d565b5b6040519080825280602002602001820160405280156100ac5781602001602082028036833780820191505090505b50905060006100bb82856100d6565b14156100cb5760019150506100d1565b60009150505b919050565b6000807f30644e72e131a029b85045b68181585d2833e84879b9709143e1f593f00000019050600061010661026d565b90508060800151516001865161011c9190611171565b1461012657600080fd5b60006040518060400160405280600081526020016000815250905060005b86518110156101df5783878281518110610161576101606111c7565b5b60200260200101511061017357600080fd5b6101ca826101c5856080015160018561018c9190611171565b8151811061019d5761019c6111c7565b5b60200260200101518a85815181106101b8576101b76111c7565b5b60200260200101516105f8565b61069f565b915080806101d7906111f6565b915050610144565b506102098183608001516000815181106101fc576101fb6111c7565b5b602002602001015161069f565b905061024f856000015186602001516102218461076c565b85604001516102338a6040015161076c565b8760600151610245896000015161076c565b8960200151610811565b61025f5760019350505050610267565b600093505050505b92915050565b610275610d39565b60405180604001604052807f18520e711c2174112a711616cc9174aea2d6b6a66818ae453e79157d128e761681526020017f27dbe4a296d5f8c4e5ceab3bf2cbe9af1f9c223814acd3a2506d16db8f0136208152508160000181905250604051806040016040528060405180604001604052807f08604c7de1122c2be83ec294dcd7d8af74b1a0beb4ea45a69d35b9d792aa676281526020017e32683b38b707e251c3ab75690247a5aaca4872a62d9ec3e2fb4645333cf2a1815250815260200160405180604001604052807f231a7508286ef6cddd264a9ddef1a24c0a590144f5589810c5e489d966b21b6b81526020017f0981b141a13c9829a84d4f7c7c8724779f880cfc46d4e99215ea5c410de5970e8152508152508160200181905250604051806040016040528060405180604001604052807f2d6a1f06329737fc5f094d929a4459446d8d962eda3662b04a439262171a167e81526020017f03c01abb60d4451cdf236e19b5459d74e4f123955a6068fc41621e6ca4d2b111815250815260200160405180604001604052807f298aceb47ebc56cf25374384d5740b0e5aba96081caad6712f3c7aa4a2cf30be81526020017f1cbe2d552c3eef5da11295bf3cca781d8627c2c79785b462754091e50ee55e238152508152508160400181905250604051806040016040528060405180604001604052807f146dcb1e010cc07c9096d4a0e469bcd40e31d10f4f102657971b39eee59d841c81526020017f04b4731aad2742d847b7504c2603b6df534eefa5f31522be2d925bd4e1838ea2815250815260200160405180604001604052807f19dc26629ab006fb6103ae7520056fec1a520be25865a5edd8e1515c1a2a25e781526020017f2db4096b08e7882177c4d1ad8ff1f10a4f7c7dbcd0998b85f31a8e85ad49cdf98152508152508160600181905250600167ffffffffffffffff81111561053b5761053a610e6d565b5b60405190808252806020026020018201604052801561057457816020015b610561610d80565b8152602001906001900390816105595790505b50816080018190525060405180604001604052807f129a47efd005e8a7c5d6c1c39bfac6389b40091137e8f0d7de268d74c9aa82ca81526020017f2bbee24f90c3edd0356940b51f1510d5f70e0c7b6e8f02c3cc4160f37993d34e81525081608001516000815181106105ea576105e96111c7565b5b602002602001018190525090565b610600610d80565b610608610d9a565b836000015181600060038110610621576106206111c7565b5b602002018181525050836020015181600160038110610643576106426111c7565b5b6020020181815250508281600260038110610661576106606111c7565b5b602002018181525050600060608360808460076107d05a03fa9050806000811461068a5761068c565bfe5b508061069757600080fd5b505092915050565b6106a7610d80565b6106af610dbc565b8360000151816000600481106106c8576106c76111c7565b5b6020020181815250508360200151816001600481106106ea576106e96111c7565b5b60200201818152505082600001518160026004811061070c5761070b6111c7565b5b60200201818152505082602001518160036004811061072e5761072d6111c7565b5b602002018181525050600060608360c08460066107d05a03fa9050806000811461075757610759565bfe5b508061076457600080fd5b505092915050565b610774610d80565b60007f30644e72e131a029b85045b68181585d97816a916871ca8d3c208c16d87cfd479050600083600001511480156107b1575060008360200151145b156107d557604051806040016040528060008152602001600081525091505061080c565b6040518060400160405280846000015181526020018285602001516107fa919061126e565b83610805919061129f565b8152509150505b919050565b600080600467ffffffffffffffff81111561082f5761082e610e6d565b5b60405190808252806020026020018201604052801561086857816020015b610855610d80565b81526020019060019003908161084d5790505b5090506000600467ffffffffffffffff81111561088857610887610e6d565b5b6040519080825280602002602001820160405280156108c157816020015b6108ae610dde565b8152602001906001900390816108a65790505b5090508a826000815181106108d9576108d86111c7565b5b602002602001018190525088826001815181106108f9576108f86111c7565b5b60200260200101819052508682600281518110610919576109186111c7565b5b60200260200101819052508482600381518110610939576109386111c7565b5b60200260200101819052508981600081518110610959576109586111c7565b5b60200260200101819052508781600181518110610979576109786111c7565b5b60200260200101819052508581600281518110610999576109986111c7565b5b602002602001018190525083816003815181106109b9576109b86111c7565b5b60200260200101819052506109ce82826109de565b9250505098975050505050505050565b600081518351146109ee57600080fd5b6000835190506000600682610a0391906112d3565b905060008167ffffffffffffffff811115610a2157610a20610e6d565b5b604051908082528060200260200182016040528015610a4f5781602001602082028036833780820191505090505b50905060005b83811015610cd457868181518110610a7057610a6f6111c7565b5b602002602001015160000151826000600684610a8c91906112d3565b610a969190611171565b81518110610aa757610aa66111c7565b5b602002602001018181525050868181518110610ac657610ac56111c7565b5b602002602001015160200151826001600684610ae291906112d3565b610aec9190611171565b81518110610afd57610afc6111c7565b5b602002602001018181525050858181518110610b1c57610b1b6111c7565b5b602002602001015160000151600160028110610b3b57610b3a6111c7565b5b6020020151826002600684610b5091906112d3565b610b5a9190611171565b81518110610b6b57610b6a6111c7565b5b602002602001018181525050858181518110610b8a57610b896111c7565b5b602002602001015160000151600060028110610ba957610ba86111c7565b5b6020020151826003600684610bbe91906112d3565b610bc89190611171565b81518110610bd957610bd86111c7565b5b602002602001018181525050858181518110610bf857610bf76111c7565b5b602002602001015160200151600160028110610c1757610c166111c7565b5b6020020151826004600684610c2c91906112d3565b610c369190611171565b81518110610c4757610c466111c7565b5b602002602001018181525050858181518110610c6657610c656111c7565b5b602002602001015160200151600060028110610c8557610c846111c7565b5b6020020151826005600684610c9a91906112d3565b610ca49190611171565b81518110610cb557610cb46111c7565b5b6020026020010181815250508080610ccc906111f6565b915050610a55565b50610cdd610e04565b6000602082602086026020860160086107d05a03fa90508060008114610d0257610d04565bfe5b5080610d0f57600080fd5b600082600060018110610d2557610d246111c7565b5b602002015114159550505050505092915050565b6040518060a00160405280610d4c610d80565b8152602001610d59610dde565b8152602001610d66610dde565b8152602001610d73610dde565b8152602001606081525090565b604051806040016040528060008152602001600081525090565b6040518060600160405280600390602082028036833780820191505090505090565b6040518060800160405280600490602082028036833780820191505090505090565b6040518060400160405280610df1610e26565b8152602001610dfe610e26565b81525090565b6040518060200160405280600190602082028036833780820191505090505090565b6040518060400160405280600290602082028036833780820191505090505090565b6000604051905090565b600080fd5b600080fd5b6000601f19601f8301169050919050565b7f4e487b7100000000000000000000000000000000000000000000000000000000600052604160045260246000fd5b610ea582610e5c565b810181811067ffffffffffffffff82111715610ec457610ec3610e6d565b5b80604052505050565b6000610ed7610e48565b9050610ee38282610e9c565b919050565b6000819050919050565b610efb81610ee8565b8114610f0657600080fd5b50565b600081359050610f1881610ef2565b92915050565b600060408284031215610f3457610f33610e57565b5b610f3e6040610ecd565b90506000610f4e84828501610f09565b6000830152506020610f6284828501610f09565b60208301525092915050565b600080fd5b600067ffffffffffffffff821115610f8e57610f8d610e6d565b5b602082029050919050565b600080fd5b6000610fb1610fac84610f73565b610ecd565b90508060208402830185811115610fcb57610fca610f99565b5b835b81811015610ff45780610fe08882610f09565b845260208401935050602081019050610fcd565b5050509392505050565b600082601f83011261101357611012610f6e565b5b6002611020848285610f9e565b91505092915050565b60006080828403121561103f5761103e610e57565b5b6110496040610ecd565b9050600061105984828501610ffe565b600083015250604061106d84828501610ffe565b60208301525092915050565b600061010082840312156110905761108f610e57565b5b61109a6060610ecd565b905060006110aa84828501610f1e565b60008301525060406110be84828501611029565b60208301525060c06110d284828501610f1e565b60408301525092915050565b600061010082840312156110f5576110f4610e52565b5b600061110384828501611079565b91505092915050565b60008115159050919050565b6111218161110c565b82525050565b600060208201905061113c6000830184611118565b92915050565b7f4e487b7100000000000000000000000000000000000000000000000000000000600052601160045260246000fd5b600061117c82610ee8565b915061118783610ee8565b9250827fffffffffffffffffffffffffffffffffffffffffffffffffffffffffffffffff038211156111bc576111bb611142565b5b828201905092915050565b7f4e487b7100000000000000000000000000000000000000000000000000000000600052603260045260246000fd5b600061120182610ee8565b91507fffffffffffffffffffffffffffffffffffffffffffffffffffffffffffffffff82141561123457611233611142565b5b600182019050919050565b7f4e487b7100000000000000000000000000000000000000000000000000000000600052601260045260246000fd5b600061127982610ee8565b915061128483610ee8565b9250826112945761129361123f565b5b828206905092915050565b60006112aa82610ee8565b91506112b583610ee8565b9250828210156112c8576112c7611142565b5b828203905092915050565b60006112de82610ee8565b91506112e983610ee8565b9250817fffffffffffffffffffffffffffffffffffffffffffffffffffffffffffffffff048311821515161561132257611321611142565b5b82820290509291505056fea2646970667358221220c956d6f267152a51a80be181d1441ec06087f959eefc6023d68854915d3daadb64736f6c63430008090033",
  "linkReferences": {},
  "deployedLinkReferences": {}
}